:020000040800F2
:1000000070040020A1010008A31200087D0E000862
:10001000A1120008AD0200081F1500080000000032
:10002000000000000000000000000000A71200080F
:10003000AF02000800000000A5120008A912000885
:10004000BB010008BB010008BB010008BB010008A0
:10005000BB010008BB010008BB010008BB01000890
:10006000BB010008BB010008BB010008BB01000880
:10007000BB010008BB010008BB010008BB01000870
:10008000BB010008BB010008BB010008BB01000860
:10009000BB010008BB010008BB010008BB01000850
:1000A000BB010008BB010008BB010008BB01000840
:1000B000BB010008BB010008BB010008BB01000830
:1000C000BB010008BB010008BB010008BB01000820
:1000D000BB010008BB010008BB010008BB01000810
:1000E000BB010008BB010008BB010008BB01000800
:1000F000BB010008BB010008BB010008BB010008F0
:10010000BB010008BB010008BB010008BB010008DF
:10011000BB010008BB010008BB010008BB010008CF
:10012000BB010008BB010008BB010008BB010008BF
:10013000BB010008BB010008BB010008BB010008AF
:10014000BB010008BB010008BB010008BB0100089F
:10015000BB010008BB010008BB010008BB0100088F
:10016000BB010008BB010008BB010008BB0100087F
:10017000BB010008BB010008BB0100080000000033
:10018000BB010008BB010008DFF810D000F07CF8CC
:10019000004800472D1A0008AFF3008070040020CB
:1001A0000648804706480047FEE7FEE7FEE7FEE711
:1001B000FEE7FEE7FEE7FEE7FEE7FEE74113000885
:1001C000890100082DE9F05F0546002092469B4614
:1001D00088460646814640241BE02846414647465D
:1001E000224600F041F853465A46C01A914110D3B6
:1001F00011461846224600F028F82D1A67EB010830
:100200004F4622460120002100F01FF817EB00099D
:100210004E41201EA4F10104DFDC484631462A4647
:100220004346BDE8F09FD2B201E000F8012B491E21
:10023000FBD270470022F6E710B513460A46044683
:100240001946FFF7F0FF204610BD202A04DB203AB4
:1002500000FA02F1002070479140C2F1200320FA19
:1002600003F3194390407047202A04DB203A21FA17
:1002700002F00021704721FA02F3D040C2F12002BF
:100280009140084319467047064C074D06E0E06868
:1002900040F0010394E8070098471034AC42F6D3CD
:1002A000FFF776FFC41A0008E41A0008FEE770475B
:1002B00072B6FEE770B58CB0142102A8FFF7BAFF42
:1002C0001948016841F00201016000684FF40054D0
:1002D00000F0020000900120CDE9024004900320CC
:1002E000124D059002A9284600F0C8F801222146C7
:1002F000284600F0C0F90E4800F0DFFD07A90C48C1
:1003000000F03EFF054601460AA001F009F900246D
:1003100007AE05E0315D0DA001F002F9641CE4B206
:10032000AC42F7D30CB070BD303802400008024038
:1003300008000020466F756E642025642049324312
:1003400020646576696365733A0A00003078253069
:1003500032580A00A32000F037B8A82000F034B8C3
:1003600010B5022000F030F800F00F0010BD0000C2
:100370001CB5022000F028F8124C10F00F0020717C
:100380001FD001A8009004230322382104F10800A3
:1003900000F088FE9DF80400810961719DF8051048
:1003A00000F00F0041EA00219DF806209DF80700AB
:1003B00002F00F0240EA0220A0F2DF10404221804A
:1003C00060801CBD0000002002463821014800F07A
:1003D000A9BE0000080000200B4602463821014853
:1003E00000F0F0BE0800002010B5FFF763FF00F03A
:1003F0000BF8802000F02BF8012000F024F8BDE875
:1004000010400A2000F018B870B50A4D4FF400549F
:1004100000222146284600F02EF90A2000F01CF8A0
:1004200001222146284600F026F9BDE870406420EC
:1004300000F012B8000802400E2800D90E20014634
:100440008820FFF7C9BF0146A420FFF7C5BF0146BA
:100450008020FFF7C1BF000070B5044600F010F91E
:100460000546601C02D004480078044400F008F9F6
:10047000401BA042FAD370BD140000202DE9F84FB4
:10048000DFF8BCA10022012503264FF00F090AF175
:10049000040BAAF1040E00BF0B6805FA02F4234016
:1004A000A34270D10F7907F00307012F01D0022F6B
:1004B00016D187684FEA420806FA08FC27EA0C07BB
:1004C000D1F80CC00CFA08FC4CEA070CC0F808C0C4
:1004D0004768A7430C79C4F3001494403C4344603C
:1004E0000C79E443A4070AD0C4684FEA420C06FA28
:1004F0000CF7BC438F6807FA0CF72743C7600C79E9
:1005000004F00304022C12D1D40800EB840CDCF8B4
:1005100020405707FF0E09FA07F824EA0804D1F82B
:10052000108008FA07F848EA0408CCF8208004682C
:100530004FEA420C06FA0CF7BC430F7907F00307A9
:1005400007FA0CF7274307604C6814F4403F70D05B
:100550003C4C276847F480472760246822F0030753
:1005600004F480440094384C07EB040CDCF8084891
:1005700097074FEA177809FA08F7BC43334FB84298
:1005800002D1002724E054E0314FB84201D10127C5
:100590001EE0304FB84201D1022719E02E4FB84279
:1005A00001D1032714E02D4FB84201D104270FE0F9
:1005B0002B4FB84201D105270AE02A4FB84201D19A
:1005C000062705E0284FB84201D1072700E0082799
:1005D00007FA08F72743CCF80878DAF800405746BE
:1005E000D1F804C09C435FEACC2C00D51C433C608E
:1005F000DBF800405F46D1F804C09C435FEA8C2CD6
:1006000000D51C433C60DEF800407746D1F804C0BA
:100610009C435FEA8C3C00D51C433C60084F083F7C
:100620003C68D1F804C09C435FEACC3C00D51C4335
:100630003C60521C102AFFF42FAFBDE8F88F000079
:10064000083C0140443802400030014000000240B4
:100650000004024000080240000C0240001002406A
:100660000014024000180240001C024000690840CB
:1006700000D0012070470AB1816170470904FBE78F
:10068000014880687047000014000020024881681B
:100690000278114481607047140000200B4810B5A7
:1006A000016841F400710160016841F480610160FA
:1006B000016841F480710160032000F061F80F20AF
:1006C00000F006F800F024F8002010BD003C0240C5
:1006D00070B50D4D04464FF47A712878B1FBF0F0F7
:1006E0000A490968B1FBF0F000F0FCFA48B9102C97
:1006F00007D200222146501E00F022F800206C6034
:1007000070BD012070BD00001400002020000020FA
:100710000A4808B5016841F480410160006800F4AE
:10072000804000900548001F016841F08051016041
:10073000006800F08050009008BD0000443802407E
:10074000F0B40E4B1B680C46C3F30223C3F107053C
:10075000042D00D90425191D072901D2002300E02A
:10076000DB1E012606FA05F1491E214099409E40F4
:10077000761E16403143F0BC00F0E2BE0CED00E006
:10078000064900F0070208684FF6FF03184040EAE8
:100790000220034A10430860704700000CED00E09F
:1007A0000000FA052DE9F0470E46050065D0DFF898
:1007B0001481D8F80000F7B200F00700B04207D269
:1007C00088F80070D8F8000000F00700B04254D15B
:1007D00028683D4C810712D5400703D5206840F4B6
:1007E000E05020602878000703D5206840F460407E
:1007F00020602068A96820F0F00008432060287875
:10080000C0072DD0304968680839012812D0022865
:1008100013D0032811D00968890700292DDA21682F
:1008200021F0030101432160FFF72AFF814641F2D5
:10083000883A0EE009688903EFE709688901ECE767
:10084000FFF71EFFA0EB0901514502D90320BDE8C7
:10085000F0872068696800F00C00B0EB810FEFD1E1
:10086000D8F80010404601F00701B14207D90770DF
:10087000006800F00700B04201D00120E7E72878C7
:10088000400705D52068E96820F4E050084320605F
:100890002878000706D52068296920F4604040EADE
:1008A000C100206000F038F82168084AC1F3031144
:1008B000515CC8400649086006480068FFF708FF19
:1008C0000020C4E7003C024008380240AC1A00088F
:1008D000200000201800002004480549006809682D
:1008E000044AC1F38221515CC840704720000020B7
:1008F00008380240BC1A0008044805490068096825
:10090000044AC1F34231515CC840704720000020C6
:1009100008380240BC1A0008154810B5006810F0ED
:100920000C02144813D04110042A0FD0082A0ED10B
:100930000F4C241F2268236802F03F025B0207D598
:100940002068C0F38810A0FB010106E0084610BD36
:100950002168C1F38811A1FB00010023FFF732FCDD
:100960002168C1F30141491C4900B0FBF1F010BD01
:10097000083802400024F4002DE9F84F04006ED03E
:100980002078DFF84C93C007A9F104054AD009F19B
:1009900004000168C1F38101012908D00068C0F397
:1009A000810002280AD1D9F80000400206D5286843
:1009B000800337D560680028E1D033E06068B0F587
:1009C000803F10D0B0F5A02F286810D020F48030E0
:1009D0002860286820F4802028606068A8B1FFF7AC
:1009E0004FFE06460DE0286840F48030F4E740F4FE
:1009F00080202860F7E700BFFFF742FE801B6428D5
:100A000073D828688003F7D50CE0FFF739FE064657
:100A100005E000BFFFF734FE801B6428F0D828688B
:100A20008003F7D42078DFF8AC8280074FF0000A0B
:100A30003ED5A748001D016811F00C0F08D00068D2
:100A4000C0F3810002280BD1D9F80000400207D47E
:100A50002868800716D5E068012800D112E033E14C
:100A6000E068B8B10120C8F80000FFF709FE0646AB
:100A700005E000BFFFF704FE801B0228C0D82868ED
:100A80008007F7D52868216920F0F80040EAC10006
:100A900028600DE0C8F800A0FFF7F2FD064604E06C
:100AA000FFF7EEFD801B02281FD828688007F7D4C7
:100AB0002078000722D5864F87486169703771B169
:100AC00001210160FFF7DCFD064604E0FFF7D8FDD9
:100AD000801B022809D838688007F7D50EE0C0F8D7
:100AE00000A0FFF7CDFD064605E082E0FFF7C8FD58
:100AF000801B02287DD838688007F7D4207840070B
:100B000068D5DFF8CCB100270BF13C0BDBF8000017
:100B1000C0000BD4DBF8001041F08051CBF800107E
:100B2000DBF80000012700F0805000906B4E306829
:100B3000C00510D4306840F480703060FFF7A0FD2D
:100B4000009005E0FFF79CFD0099401A022850D85C
:100B50003068C005F6D55E4EA0686C3601280FD00F
:100B60000528306810D020F001003060306820F097
:100B700004003060A068B8B1FFF782FD00900FE07C
:100B8000306840F00100F4E740F004003060F7E71F
:100B9000FFF776FD0099411A41F28830814266D80C
:100BA00030688007F4D50EE0FFF76AFD009007E09B
:100BB000FFF766FD0099411A41F28830814256D80C
:100BC00030688007F4D42FB1DBF8001021F0805199
:100BD000CBF80010A069C8B33D49091D0968C1F3ED
:100BE000810102294AD00228504607D0C8F8600087
:100BF00000E03CE0FFF744FD04463BE04746C8F810
:100C00006000FFF73DFD064605E000BFFFF738FD39
:100C1000801B02282BD828688001F7D4D4E907016B
:100C20000843A16A2E4A490802EB0141626A41EA7F
:100C30008211084394F82C1040EA0161C9F80010B1
:100C400001203866FFF71CFD044606E03EE000BFC9
:100C5000FFF716FD001B022809D828688001F7D588
:100C600034E000BFFFF70CFD001B022802D903206F
:100C7000BDE8F88F28688001F4D427E00128F7D078
:100C8000D9F80000E26900F4800191421CD1226A87
:100C900000F03F01914217D147F6C071626A0140EE
:100CA000B1EB821F10D1A26A4FF0FF3300F4403144
:100CB00003EB5202B1EB024F06D194F82C1000F076
:100CC0007060B0EB016F01D00120D1E70020CFE7C9
:100CD0000438024000004742800E47420070004046
:100CE0000000FFFF10B5401EB0F1807F01D301204E
:100CF00010BD4FF0E02460610F21601700F020FC70
:100D00000020A06107202061002010BD70B5040004
:100D100004D094F84100002510B106E0012070BD18
:100D200084F84050204600F023F8242084F8410045
:100D30002068C16821F40051C160204600F030FBFA
:100D40002068016921F4904101612068416921F026
:100D50002A0141612068C16841F40051C1606564A5
:100D6000202084F8410084F842006563002070BDB3
:100D700010B586B0044614216846FFF75BFA1449A3
:100D80002068884221D113480021026842F01002F5
:100D90000260006800F0100005900E4814380268E8
:100DA00042F001020260006800F0010005904FF47B
:100DB000C06000900220CDE90101032003900720CC
:100DC000049069460448FFF759FB06B010BD0000C7
:100DD0000010014044380240000002402DE9F84371
:100DE000044690F84100984616460D46202802D049
:100DF0000220BDE8F88385B17EB100206064212027
:100E000084F84100FFF73CFCA6848146E684A06894
:100E10002027B0F5805F02D003E00120E9E72069D8
:100E200010B12E4600250EE000260CE08021204661
:100E300000F03CFBA8B9C6B116F8010B2168486068
:100E4000E08C401EE084E08C4B464FF00002CDF871
:100E500000800028EAD14FF04001204600F026FB38
:100E600040B184F841700320C3E735F8020BC0F3AA
:100E70000800E3E784F841700020BAE7FEE710B508
:100E80000446418940680022FFF7F5FB21890022D2
:100E90002068FFF7F0FB052000F0ACFD618901221E
:100EA0006068FFF7E8FB052000F0A4FD6189606839
:100EB000BDE810400022FFF7DEBB10B586B0044647
:100EC00014216846FFF7B6F960890090112001905F
:100ED000002002900320039069466068FFF7CEFA75
:100EE0002089009069462068FFF7C8FA61890122CD
:100EF0006068FFF7C0FB218901222068FFF7BBFB78
:100F000006B010BD10B50446418940680022FFF7C5
:100F1000B2FB218901222068FFF7ADFB052000F01C
:100F200069FD618901226068FFF7A5FB052000F0DB
:100F300061FD61896068BDE810400022FFF79BBB3E
:100F400070B504460189002500680122FFF793FB74
:100F500000266806050E618900226068FFF78BFB9A
:100F6000052000F047FD618901226068FFF783FBDF
:100F700021892068FFF77AFB08B16D1CEDB20520CE
:100F800000F038FD761CF6B2082EE2D3284670BD7C
:100F900070B50E460446418940680022FFF76BFB9E
:100FA000002530062189206801D5012200E00022B9
:100FB000FFF761FB7006060E052000F01BFD61893E
:100FC00001226068FFF757FB052000F013FD6189DF
:100FD00000226068FFF74FFB6D1CEDB2082DE0D3D7
:100FE00070BD10B50446018900680122FFF743FB7C
:100FF000618901226068FFF73EFB052000F0FAFCE2
:10100000218900222068FFF736FB052000F0F2FC62
:1010100061896068BDE810400022FFF72CBB10B565
:101020000446018900680022FFF725FB618901223F
:101030006068FFF720FB052000F0DCFC218901221D
:101040002068FFF718FBBDE81040052000F0D2BC77
:1010500070B504460189002500680122FFF70BFBEB
:10106000012000F0C7FC618901226068FFF703FBE3
:10107000012000F0BFFC08E06D1CEDB2FA2D04D990
:101080002046FFF7CCFF012070BD21892068FFF7C3
:10109000EDFA0028F0D1618900226068FFF7EBFAD1
:1010A000002070BD2DE9F0411C4617460E468046D3
:1010B000069DFFF796FF7006010E4046FFF768FF9A
:1010C0004046FFF7C5FF39464046FFF761FF4046FF
:1010D000FFF7BEFF4046FFF784FF012000EB46000C
:1010E000C1B24046FFF754FF4046FFF7B1FF0BE0A7
:1010F000012C40460FD0FFF723FF28704046FFF732
:10110000BEFE641EE4B26D1C002CF1D14046BDE869
:10111000F041FFF784BFFFF713FF28704046FFF749
:10112000F1FEEEE770B516460C460546FFF759FF8F
:101130006006010E2846FFF72BFF2846FFF788FFC1
:1011400031462846FFF724FF2846FFF781FF28464F
:10115000FFF747FF012000EB4400C1B22846FFF72C
:1011600017FF2846FFF774FF2846FFF7E9FE0446FD
:101170002846FFF7C7FE2846FFF751FF204670BDFF
:101180002DE9F04100250E46074601243846FFF7B9
:1011900028FF6006010E3846FFF7FAFE3846FFF7D3
:1011A00057FF10B974556D1CEDB23846FFF737FF85
:1011B0000A2000F01FFC641CE4B2802CE6D3284611
:1011C000BDE8F0812DE9F0411E4617460C46054664
:1011D000FFF707FF6006010E2846FFF7D9FE2846F5
:1011E000FFF736FF39462846FFF7D2FE2846FFF7BD
:1011F0002FFF31462846FFF7CBFE2846FFF728FF92
:101200002846BDE8F041FFF70ABF0000154808B5C1
:10121000016841F004010160016801F004010091DE
:10122000016841F080010160016801F080010091D6
:10123000016841F002010160016801F002010091C2
:10124000016841F020010160016801F02001009176
:10125000016841F001010160006800F001000090A8
:1012600008BD0000303802400C4810B50A49016042
:101270004FF4E1314160002181600C22C160C0E97E
:1012800004128161C161FFF741FD002803D0BDE870
:101290001040FFF70DB810BD0010014028000020DD
:1012A000FEE7FEE770477047FFF7F0B930B593B03F
:1012B00030216846FEF7BEFF14210CA8FEF7BAFFE6
:1012C0001D480025016841F080510160006800F070
:1012D000805011901948016841F480410160006814
:1012E000022400F48040119001200090000401903D
:1012F0008001CDE9064008AA0420A82182E8130055
:101300000B906846FFF738FB08B172B6FEE70CA9F0
:101310000F2081E831004FF4A0500F904FF480501F
:10132000109005210CA8FFF73DFA002801D072B6F5
:10133000FEE713B030BD00004038024000700040AE
:101340000248016841F470010160704788ED00E0D7
:1013500001680C3151E8002F22F4907241E800231B
:10136000002BF5D10168143151E8002F22F0010261
:1013700041E80023002BF5D1016B012909D1016857
:101380000C3151E8002F22F0100241E80023002B1D
:10139000F5D1202180F84210002101637047000040
:1013A00070B5044600680169E26821F440511143B8
:1013B00001612169A068E26908436169114308433A
:1013C0002168CA6849F20C639A430243CA602068E4
:1013D0004169A26921F4407111434161314920689A
:1013E000884202D03049884202D1FFF785FA01E0F5
:1013F000FFF772FAE2690023192164253226B2F55B
:10140000004F626828D0A0FB0101930F9200FEF705
:10141000D9FE0146B0FBF5F06FF01802504301EB26
:10142000800006EB0010B0FBF5F000F0F002B1FB1D
:10143000F5F002EB0012B1FBF5F06FF01803584322
:1014400001EB800006EB0010B0FBF5F000F00F00A0
:1014500021681044886070BDA0FB010192185B41B7
:10146000FEF7B0FE0146B0FBF5F00201B1FBF5F06E
:101470006FF01803584301EB800006EBC000B0FB8F
:10148000F5F000F0F80002EB4002B1FBF5F0584334
:1014900001EB800006EBC000B0FBF5F000F00700A8
:1014A000D6E7000000100140001401402DE9F84388
:1014B000984617460D460446089E24E0701C22D02C
:1014C000FFF7DEF8A0EB0800B0421AD8CEB12068D2
:1014D000C168490717D5802D15D0402D13D001685C
:1014E000C94309070FD401680025406800902046D1
:1014F000FFF72EFF0820606484F840500120BDE80B
:10150000F8830320FBE72068006835EA000004D078
:101510000020B842D2D00020F1E70120F9E7FEE731
:101520000FB4054B10B503A9044A029800F028F83F
:1015300010BC5DF814FB0000151A00082400002000
:101540000907090E002804DB00F1E02080F80014F0
:10155000704700F00F0000F1E02080F8141D704784
:1015600002E008C8121F08C1002AFAD1704770476C
:10157000002001E001C1121F002AFBD170470000CA
:101580002DE9FF4F8DB00F460546002606E02528C1
:101590000BD0DDE90F1290476D1C761C28780028CF
:1015A000F5D111B03046BDE8F08F0024A246A14627
:1015B0000122E94900E0044315F8013F203B02FA0B
:1015C00003F00842F7D128782A2810D06FF02F02B4
:1015D0002878A0F13001092914D80AEB8A0102EB1E
:1015E000410144F0020400EB010A6D1CF0E701CF59
:1015F0005FEA000A03D544F40054CAF1000A44F03B
:1016000002046D1C28782E2817D115F8010F44F01C
:1016100004042A280ED06FF02F022878A0F13001A0
:1016200009290AD809EB890102EB410100EB010904
:101630006D1CF2E757F8049B6D1C28786C280FD0BE
:1016400006DC4C2817D068280DD06A2814D104E095
:10165000742810D07A280FD10DE044F400140AE069
:1016600044F4801401E044F440146978814202D1CA
:1016700004F580146D1C6D1C28786E281ED00CDCBF
:10168000632830D004DC00288BD0582811D19FE08B
:10169000642867D069280CD164E073282DD004DC5D
:1016A0006F2872D0702804D194E075286ED0782805
:1016B0006DD0DDE90F129047761C4BE1C4F3025068
:1016C000022806D0032809D0042801CF09D00660DB
:1016D00040E101CFF117C0E900613BE101CF068095
:1016E00038E1067036E117F8040B8DF80000002091
:1016F0008DF80100EB46012003E057F804BB4FF0E2
:10170000FF3061074FF0000102D40DE008F1010144
:10171000884649450FDA8045F8DB1BF80810002998
:10172000F4D108E008F1010188468142FADB1BF898
:1017300008100029F6D1DDE90F23AAEB0800814645
:10174000214600F031F9304400EB080604E0DDE901
:101750000F121BF8010B9047B8F10108F7D2214690
:101760004846F2E00A21C4F302524FF0000B089100
:10177000022A04D001CFC117032A09D00AE0FF1DB5
:1017800027F00707F7E8020108E02CE01EE01FE061
:1017900000B2C117042A01D140B2C117021E71F173
:1017A000000206DA0023D0EB030063EB01012D22D7
:1017B00002E0220504D52B228DF82420012203E02B
:1017C000E20701D02022F7E7904653E00A210BE020
:1017D000102109E010214FF0000B44F004044FF0F9
:1017E0000809089103E008214FF0000B0891C4F3A9
:1017F0000252022A04D001CF0021032A06D006E0BB
:10180000FF1D27F00707F7E8020103E080B2042A72
:1018100000D1C0B24FF0000822072BD52A78702AD9
:1018200007D0DDF820C08CF0100C5CEA0B0C05D062
:101830000EE040228DF82420012208E050EA010346
:1018400006D030238DF824308DF8252002229046D2
:10185000089B83F0080353EA0B030BD150EA010203
:1018600001D1620706D530228DF824204FF00108FF
:10187000A9F101092A78582A04D038A20B9208AAA3
:101880000A920BE03AA2F9E75B46089AFEF79AFC47
:101890000B9B9B5C0A9A521E0A92137050EA01023B
:1018A000F2D10A98ADEB000000F1200B600702D5E1
:1018B00024F4803401E04FF00109D94502DDA9EBA1
:1018C0000B0000E0002000EB0B0141440890AAEB64
:1018D000010AE00306D4DDE90F232146504600F05B
:1018E00063F806444FF0000908E009A911F809005F
:1018F000DDE90F12904709F10109761CC145F4DBBF
:10190000E0030CD5DDE90F232146504600F04CF8EA
:10191000064404E0DDE90F1230209047761C089958
:10192000481E08900029F5DC08E00A980A9900781A
:10193000491C0A91DDE90F129047761CBBF10001AA
:10194000ABF1010BF1DC21465046DDE90F2300F03D
:1019500019F806446D1C21E60928010030313233A4
:1019600034353637383961626364656600000000DB
:1019700030313233343536373839414243444546C5
:10198000000000002DE9F041044600251E461746E0
:10199000880404D405E039462020B0476D1C641E3D
:1019A000F9D52846BDE8F0812DE9F041044600252F
:1019B0001E469046C80301D5302700E02027880442
:1019C00004D505E041463846B0476D1C641EF9D584
:1019D0002846BDE8F081000070B50546FEF750FED0
:1019E0000446002003E000BFFEF74AFE001BA842A9
:1019F000FAD370BD002209E0002100BF00BF00BF84
:101A000000BF491CC9B22A29F7D3521C8242F3D322
:101A10007047000013B54FF0FF33012269460248BA
:101A2000FFF7DCF900981CBD28000020FEF736FE09
:101A3000FFF73CFCFFF7EAFBFFF716FCFEF7D4FCD0
:101A4000FEF788FC01460CA0FFF76AFDFEF785FC57
:101A500001460DA0FFF764FD104C00BFFEF788FCA7
:101A6000FEF77EFC20B1628821880DA0FFF758FDAB
:101A70000520FFF7B1FFF1E76368697049643A2018
:101A80002523580A00000000666F63616C7465636B
:101A90006849443A202523580A000000000000202D
:101AA000783A25642C793A25640A00000000000089
:101AB00000000000010203040607080900000000FE
:101AC00001020304E41A00080000002028000000BE
:101AD000601500080C1B00082800002048040000C6
:101AE0007015000800000000000000000014024013
:101AF0000004024000080100010000001000000086
:0C1B0000000000000024F40000000000C1
:040000050800018965
:00000001FF
