:020000040800F2
:10000000180B002089010008C1320008392F0008B0
:1000100000000000000000000000000000000000E0
:100020000000000000000000000000007133000824
:100030000000000000000000C33200087333000815
:100040009B0100089B0100089B0100089B01000820
:100050009B0100089B0100089B010008C5100008D7
:100060009B010008451000089B0100089B01000847
:100070009B0100089B0100089B0100089B010008F0
:100080009B0100089B0100089B0100089B010008E0
:100090009B010008053400089B0100089B01000833
:1000A0009B0100089B0100089B0100089B010008C0
:1000B0009B0100089B0100089B01000800F002F86A
:1000C00000F053F80CA030C8083824182D18A246A8
:1000D000671EAB4654465D46AC4201D100F045F880
:1000E0007E460F3E0FCCB6460126334200D0FB1AA7
:1000F000A246AB4633431847F4390000143A0000D7
:10010000103A02D378C878C1FAD8520701D330C860
:1001100030C101D504680C60704700000023002442
:1001200000250026103A01D378C1FBD8520700D32E
:1001300030C100D50B60704710B5642902D100F0C2
:10014000CFF810BD782902D100F000F910BD0020D1
:1001500010BD1FB50098019900F0E3FC00F0DAFA39
:100160001FBD10B500F042FB10BD00F0A4FB11460E
:10017000FFF7EFFF03F026FC00F0A2FC03B4FFF74B
:10018000F0FF03BC00F060FE0748804707480047C7
:10019000FEE7FEE7FEE7FEE7FEE7FEE70448054967
:1001A000054A064B7047000001340008BD000008F6
:1001B00018050020180B0020180700201807002041
:1001C000FEB5054610460C46184373D0AE468C4625
:1001D0000020AD1A01469C4167D3664600270124E2
:1001E0003D46B61A9D4102D313463A462124654640
:1001F00076462F04360C3E432D0CB61A9D4104D38F
:10020000150C1B042B4312041034654676462F064A
:10021000360A3E432D0AB61A9D4104D3150E1B0221
:100220002B4312020834654676462F0736093E43B3
:100230002D09B61A9D4104D3150F1B012B43120142
:10024000241D65467646AF07B6083E43AD08B61A8C
:100250009D4104D3950F9B002B439200A41C65463F
:100260007646EF0776083E436D08B61A9D411AD3CD
:1002700092185B41641C16E00018764665464941B9
:10028000B71A9D410191009009D36046B11A984177
:100290008E468446009801990025401C6941DD077F
:1002A00052082A435B08641EE6D57246634603B0D3
:1002B000F0BDFFE700200146C046C0462A4623465F
:1002C000F5E700000FB4054910B503AA029800F045
:1002D000DDF910BC08BC04B0184700001004002071
:1002E000F7B5002575291068009914A611D0C046ED
:1002F000C046002802DA404211A608E000990968C9
:100300008A0701D50FA602E0490704D50EA60125EC
:1003100001E0C046C046009F0024243704E000F0FE
:10032000C9F930313955641C0028F8D12B463246C2
:100330002146009800F052F9FEBD000000000000C8
:100340002D0000002B0000002000000070B50446C6
:100350000D4621461068C046C0462188090502D5D1
:100360000F4A7A4402E00E4A7A440E3223460021B4
:10037000243305E006070009360F965D5E54491CDC
:100380000028F7D120780023000705D5702D03D071
:10039000002901D002231132204600F01FF970BD60
:1003A0003E370000F8B50F46044600202062204684
:1003B000E168884700283CD0252802D06268A168FF
:1003C00033E000252046E1688847202806460ADBFE
:1003D000312E08D218487844801920380078002837
:1003E00001D00543EEE7A80701D504208543002E80
:1003F0001FD030464138192803D80120C0020543D8
:1004000020363A46204625603146FFF795FE002803
:1004100008D0012804D0FF1DFF08FF000837C6E7F9
:100420003F1DC4E762683046A1689047206A401CBF
:10043000BCE7206AF8BD0000F236000001E004C00D
:10044000091F0429FBD28B0701D50280801CC90734
:1004500000D00270704700290BD0C30702D0027091
:10046000401C491E022904D3830702D50280801C48
:10047000891EE3E70022EEE70022DFE700220309FE
:100480008B422CD3030A8B4211D300239C464EE0AF
:1004900003460B433CD4002243088B4231D303096B
:1004A0008B421CD3030A8B4201D394463FE0C3091D
:1004B0008B4201D3CB01C01A524183098B4201D335
:1004C0008B01C01A524143098B4201D34B01C01A20
:1004D000524103098B4201D30B01C01A5241C30898
:1004E0008B4201D3CB00C01A524183088B4201D307
:1004F0008B00C01A524143088B4201D34B00C01AF3
:100500005241411A00D201465241104670475DE007
:10051000CA0F00D04942031000D34042534000228A
:100520009C4603098B422DD3030A8B4212D3FC2233
:10053000890112BA030A8B420CD3890192118B42B2
:1005400008D3890192118B4204D389013AD09211C8
:1005500000E08909C3098B4201D3CB01C01A524183
:1005600083098B4201D38B01C01A524143098B424C
:1005700001D34B01C01A524103098B4201D30B0135
:10058000C01A5241C3088B4201D3CB00C01A52415A
:1005900083088B4201D38B00C01A5241D9D2430841
:1005A0008B4201D34B00C01A5241411A00D201467E
:1005B000634652415B10104601D34042002B00D5E8
:1005C0004942704763465B1000D3404201B50020AA
:1005D000C046C04602BD704770477047FFB504462D
:1005E0000D4681B0243000902168880604D5102281
:1005F000E0699143216000E00120A84201DD471B32
:1006000000E000270498A1697A191018081AA0615F
:100610002078C00602D42046C046C046002608E026
:1006200003986268A168805D9047206A401C761C30
:10063000206204988642F3DB2078C0060AD5204663
:10064000C046C04606E06268A16830209047206A34
:10065000401C206238467F1E0028F4DC07E000982A
:100660006268A168405D9047206A401C206228466D
:100670006D1E0028F3DC2046C046C04620780006E8
:1006800002D5022005B0F0BD0120FBE7084B70B594
:100690000D467B4400F027F80446284600F036F863
:1006A000002802D00020C04370BD204670BD00006D
:1006B0001B33000001468008081A02091018020ABC
:1006C0001018020C1018C008820012185200891A63
:1006D00001E0401C0A390A29FBD2704701694A1C13
:1006E00002610878704700B58FB002910021059132
:1006F0000549019379440391114604906846FFF738
:1007000051FE0FB000BD0000E5FFFFFFC068802173
:100710000840704710B543485421FFF7ADFE4248EA
:100720005421FFF7A9FE41485421FFF7A5FE404898
:100730003C493D4B404A01603E4803603B481060E5
:100740005A1C0A65411C1965012101653C48354A5E
:100750003AA1784400F01AF9002804D138487844C6
:100760000C3800F0B5F938482F4A36A1784400F02B
:100770000DF9002804D1344878440C3800F0A8F969
:1007800032482A4A2FA1784400F000F9002804D109
:100790002E4878440C3800F09BF940232148DC00B7
:1007A0000021224600F0CCF8002804D024487844E8
:1007B0005C3800F08DF91C4822464023002100F0EF
:1007C000BFF8002804D0204878445C3800F080F955
:1007D000164822461023002100F0B2F8002804D069
:1007E0001A4878445C3800F073F910BD0F4870B5B2
:1007F000006D44080B48640000F03CF90A4800F022
:1008000039F90A4800F036F909E0206D450820461C
:100810006D0000F02FF9204600F06CF82C46002CFB
:10082000F3D170BDBC03002010040020640400203C
:1008300014000020180000201C000020720000009E
:100840008733000077000000713300005B33000045
:100850000EB50191009000F0D5FA02906946012092
:10086000ABBE0EBD08B5694600900220ABBE08BD08
:100870001FB56B4607C369460520ABBE04B010BD6B
:100880001FB56C460FC469460620ABBEF6E708B537
:10089000694600900920ABBE08BD1CB500900A2037
:1008A00001916946ABBE1CBD704708B56946009012
:1008B0000C20ABBE08BD754600F010F9AE46050031
:1008C00069465346C008C000854618B020B5FFF7FA
:1008D00065FC60BC00274908B6460026C0C5C0C5F7
:1008E000C0C5C0C5C0C5C0C5C0C5C0C5403D490024
:1008F0008D46704770B50446051F00F0F5F8006896
:10090000002C1AD0446801E020466468002C01D015
:10091000AC42F9D301680A18AA4204D12A680546F4
:100920008918016000E0456028684119A14205D19D
:100930006168696021684018286070BD6C6070BD96
:1009400070B5C468A50713D0650211D4D51FF93D51
:100950000AD0FF3D6D1E07D0FF3DFF3D022D07D1A0
:1009600001462431012305E0074E5D1EB54201D347
:10097000012070BD0161C36141600F2109028C43F8
:100980001443C460002070BDFFFFFF00F7B516469A
:100990000C46104600F06EF82078611C61280AD0E1
:1009A000722802D0772839D102E00125002404E022
:1009B0000225042401E02D4D0824022203230127EF
:1009C0000878491C2B2806D0622807D02039C87F18
:1009D000742807D008E01D431443F1E704200543C1
:1009E0003C43EDE71020044300982146FFF730FF19
:1009F000411C13D00021316171600121F560490271
:100A0000F1617061200704D530460222002100F018
:100A1000E7F8306D384330653046FEBD0020FEBD3E
:100A2000F8B50D460646124C206DC10704D04108AA
:100A300004D044086400F7E7224610E0542000F098
:100A40009DF8070010D07908206D4900012211435C
:100A50000843542120653846FFF70EFD3A462946E3
:100A60003046FFF793FFF8BD0020F8BD028000007C
:100A7000BC030020FEB50446466900690F4F019093
:100A8000E56800200090A80707D0204600F052F942
:100A90003046FFF7E7FE002801DA3846FEBD28059C
:100AA00002D50198FFF726FF4C212046FFF7E4FC12
:100AB000206D4008400020650098FEBDFFFFFFFF4D
:100AC00010B50446C046C0462046FFF757FB10BD90
:100AD00010B500F07DF900F075F910BD00487047C1
:100AE000B80400207047000000487047C004002090
:100AF000704770477047704738B504460A46002073
:100B00006946C046C046002805D0024620460099E6
:100B100000F0A7F9012038BD10B5012000F0F6F96A
:100B200010BDF8B5C046C046054600200C46102052
:100B3000C0460646A819A0420DD932466946002093
:100B4000C046C046070001D100F0E0F90098A0427D
:100B500000D00546C419FFF7C7FFF61D074605601C
:100B6000F008C0004619284600F074F9B44204D0D9
:100B700031463868A21B00F074F9F8BD70B506461E
:100B8000FFF7B2FF056830460B30C408E400B442FA
:100B900001D8002070BD68682A46002818D0016876
:100BA000A14211D30B46214608318B4208D343683A
:100BB00001194B6003681B1B0B605160046001E06E
:100BC00041685160001D70BD024640680028E6D1B2
:100BD00021462846FFF790FF0028DCD170BD0000B9
:100BE000F8B5044616460D464769007B800730D0AD
:100BF0003846FFF74CFE00282BD132461026002A3B
:100C000025D0012A02D0022A23D104E0204600F098
:100C100042F945191BE03846FFF747FEE1683143CA
:100C20000028E16004DA204600F054F80120F8BD05
:100C3000C9030BD56268E16A914200D81146A269E6
:100C400089182269891A814200DD08462D18002D75
:100C500001DA0220F8BDE16A6068E268814206D2EA
:100C60009103E06203D5012149048A433243A66916
:100C7000AE4211DCE16A814201D90B4600E0034635
:100C80009F192369FF1AAF4206DD814201D90F4641
:100C900000E007469F4206D1202002430020A060CA
:100CA000A56220600DE0AD1BE669AE1B8142A66027
:100CB00000D90846C01A281A206058196060202000
:100CC0008243034802400020E26040342072F8BDB5
:100CD000BFCFD7FFC1688022114392039143C16007
:100CE0000021816001607047F7B514460E46334815
:100CF000D5685769054209D03846A169FFF7CDFD8F
:100D0000002811DB2D48C0430540E5602B463246E4
:100D100038460099FFF7ACFD4200A1695208B21AAB
:100D200089180028A16104D02046FFF7D3FF0020D6
:100D3000C043FEBD70B504460569C06A616888425B
:100D400000D80846E1680522D2049143E160C90356
:100D500014D5A84209D02246411B2846FFF7C4FFFC
:100D6000002802D00020C04370BDE562002065600D
:100D7000A060E068012109048843E060002070BDA4
:100D800010B50446C06820218843E060A16AA069CC
:100D900088420ED02046FFF7CDFFE068032109030B
:100DA000884310210843E060A06AA0612069E062E6
:100DB00060600349E0680840E06010BD1000020078
:100DC000BFBFFFFF10B5002801D000F03DF810BDF7
:100DD00010B5014602A000F07FF8012010BD000010
:100DE00053494752545245443A20526564697265EA
:100DF00063743A2063616E2774206F70656E3A20C9
:100E00000000000030B5441C03E00178401C0029BC
:100E10000DD08107F9D10B4BDD0104C8D11A9143E4
:100E20002940FAD0001B0A0603D0C01E30BD001BAB
:100E300030BD0A0401D0801E30BD0902FCD0401E26
:100E400030BD00000101010101491820ABBEFEE7E1
:100E50002600020000210160416080607047102080
:100E6000704710B50346406801E00346406800281B
:100E700001D08842F9D31868C3188B4206D0CB1C26
:100E8000D808C000001D411A521A0146081D0A6008
:100E9000FFF730FD10BD10B50146C268900703D0C2
:100EA000900607D5886A0AE000F03CF8012101604D
:100EB000881E10BD8B694868C0180B69C01A403184
:100EC0000B7A002B02D0497A401A10BD1103FCD5D1
:100ED0000028FADD401E10BD70B505460C460A20FC
:100EE00000E06D1C00F018F8002D06D028780028CE
:100EF000F7D102E0641C00F00FF8002C02D020783B
:100F00000028F7D10A2000F007F870BD10B500F0F6
:100F10000DF8FFF757FF10BD08B5694608700320AC
:100F2000ABBE08BD00487047B804002010B50128CA
:100F300005D0002103A0FFF7CFFF012010BD09A1BC
:100F4000F8E7000053494752544D454D3A204F753C
:100F500074206F662068656170206D656D6F7279B1
:100F6000000000003A2048656170206D656D6F7269
:100F70007920636F72727570746564001CB50DA181
:100F800003C9009001910E480C49016000214160A5
:100F900081600161416181610822C161C2600162B9
:100FA00001466A46074800F05AFA07A0FFF78AF997
:100FB0001CBD0000010203040506070834120000EE
:100FC00070000020B800002073656E642063616EBD
:100FD00031207375636365737365640A00000000F4
:100FE0001CB50DA103C9009001910E480C49016088
:100FF0000021416081600161416181610822C1611C
:10100000C260016201466A46074800F028FA07A05C
:10101000FFF758F91CBD000001020304050607088C
:1010200034120000940000201C01002073656E64DF
:101030002063616E32207375636365737365640A40
:101040000000000010B5024800F0B4F810BD000028
:10105000C8020020F8B504460668406C0D4F8508AC
:10106000F0B2AD0014210838FFF708FABE4203D2EF
:1010700009496918A16404E007491C316918C01DB9
:10108000A16405498031E164C106C90E0120884090
:101090002065F8BD08040240000802400179084BB1
:1010A0004906490E8A00D2184265054A4432491E53
:1010B00082658A07920F01219140C1657047000047
:1010C000FC08024010B50120400200F027FD10BDD1
:1010D00072B6FEE730B51A4C3523026817491B017A
:1010E000A24200D117498032016414681F252D04E3
:1010F000AC43858E2D042C4314600A467032426442
:101100000268803214680F252D06AC43058F2D062A
:101110002C4314600A46B0328264D832C26413226F
:1011200052018A1802654F22D2008A1842650022B5
:10113000C81800E004C18142FCD330BD00B40040B7
:101140000068004050B70040F0B58D680C692C4332
:1011500060C90839002E16D00126B60735432C4346
:101160008E69CD690F8C35434E693F063E4335434A
:101170008E89406D3604354348267343C01830C00D
:1011800000230B4F0EE0AD04E9E7D418E678D55CF8
:1011900036063543A6786478360424022643354360
:1011A00020C01B1DCC683C5D9C42EED8F0BD000009
:1011B0000C3A0008F0B4016C0D6801680C68466CCC
:1011C0001C22042316401F46B7402F420ED067074B
:1011D0000CD50C68A40602D40C689C430C60416CCE
:1011E00011408B40016C4B60016B24E00227B7403B
:1011F00003462F402033002F21D0A7071FD50C68AE
:10120000A40605D40C680A25AC430C600121597171
:10121000174C0168A142446C04D914400221A1403A
:10122000144A04E014400221114AA140803A51605E
:1012300000211971C16A002918D0F0BC084708279D
:10124000B7402F4212D0240710D50C680E25AC43AE
:101250000C60446C012114400A46A240046C626098
:10126000C163597100211971416BE4E7F0BC70470B
:10127000800002400004024070B504000CD02D48EC
:10128000256885420AD22C4814212818FFF7F6F861
:101290008000606429480BE0012070BD25481421BE
:1012A00040422818FFF7EAF88000606421480838B7
:1012B00020640220264620367071286820490840A4
:1012C0002860E168A0686269084321691143084306
:1012D000A1690843E1690843216A084321680A6853
:1012E000104308602046FFF7B5FE0121A06889037E
:1012F0000025884200D165602079A16C4006400E2F
:101300000860E06C216D41606068401E032808D8C9
:101310002046FFF7C3FE606D0560A06DE16D416082
:1013200002E06565A565E565E563012070713571CD
:10133000002070BD08040240F8FFFDBF000002401D
:101340000F80FFFF70B5044600F0B6FC0546601C38
:1013500002D004480078241800F0AEFC401BA042E4
:10136000FAD370BD04000020F7B55C22125CCB05F7
:1013700082B00193012A08D0022A06D0016E02220F
:1013800011430166012005B0F0BD0668B26DCB04C3
:1013900000930B049C460B024F078D068C039E4660
:1013A000002F01D0D7071BD06F0F01D0970717D59B
:1013B000019F7F0F01D0570712D5009F3F0F01D02B
:1013C00017070DD563465F0F01D0D70608D5A70FC5
:1013D00001D0970604D573469F0E05D0570603D457
:1013E000F76D01231F43F7654B0701D0D3071BD1CE
:1013F0006B0F01D0930717D4019B5B0F01D05307EC
:1014000012D4009B1B0F01D013070DD463465B0F52
:1014100001D0D30608D4A30F01D0930604D4734699
:101420009B0E06D0520604D50268D36D02242343D6
:10143000D3650A0605D502688032D36D049C234328
:10144000D365CA0505D502688032136E049C234318
:1014500013660068426D0A434265002093E770B549
:1014600004464030007F022802D0206E082107E0A9
:1014700020688030436C9B0206D5206E0121490212
:1014800008432066012070BD406C8003850F2B4609
:101490002046FFF759FE01202168A8408031C8642A
:1014A000A065002070BD704770470000F0B59C46F5
:1014B0005C231B5C0024022B03D0016E0822114325
:1014C00056E0FF250135036840293ED080339E69F0
:1014D00036074BD09D69ED0103D51D68ED0500D59C
:1014E00001249B699B059B0F1D19C46C48236B430A
:1014F000E41801262368B6073340536023683AD0C6
:10150000DB00DB0813600126236876073340936015
:1015100023687612DB0FDB071361A3889BB2D361CC
:1015200063681B031B0FD3606368334053616368B8
:10153000760033409361636800265B005B0E1362A4
:101540006368DB0F083453621CE080331E69360782
:101550000CD01D69ED0103D51D68AD0500D5012432
:101560001B699B059B0F1D19846CBFE7016E294306
:1015700001660120F0BDDB005B0DC3E7A75D63469C
:101580009F55761C074FD368FB5CB342F6D80068C2
:10159000402903D08030C5610020F0BD8030456116
:1015A000FAE700000C3A00087047F0B504460068FE
:1015B0008BB0016D072292021140426D0A400692E3
:1015C000016D4A07416D520F11400591016D38229E
:1015D0001140426D0A400492016DF1221204476DE0
:1015E00011400F40016D072252041140426D0A4024
:1015F0000292456D016DCE43710607D4E943490659
:1016000004D4402101652046FFF7CEFFF0050ED43B
:10161000E843C0050BD4206802468030836D016E1C
:10162000FF20194001301065204600F072FA06983C
:10163000002805D0216808652046069900F06BFA5D
:101640000598002805D0216808652046059900F016
:10165000C1F90498002805D021680865204604993E
:1016600000F03EFAB00509D4E843800506D4012015
:10167000216840020865204600F04EFA30060DD47D
:10168000E84300060AD4206802468030436DC16DED
:10169000194080201065204600F03CFAB00409D4BF
:1016A000E843800406D401202168400308652046F1
:1016B00000F02EFA300409D4E843000406D40120D7
:1016C0002168C0030865204600F021FA70040AD49E
:1016D000E843400407D40120216880030865206E98
:1016E0008021084320660298002805D021680865FB
:1016F00020460299FFF7D8FE002F04D02068076526
:10170000206E38432066206E002802D02046FFF766
:10171000CAFE0BB0F0BD0000F8B5040005D02546A8
:101720004035287F002802D006E00120F8BD0020C7
:101730006877204600F0C2F8206881691022914342
:10174000816100F0B9FA0746012604E000F0B4FA1E
:10175000C01B0A2810D8206880690007F6D42068CA
:1017600081693143816100F0A7FA07460AE000F081
:10177000A3FAC01B0A2805D9206E30432066032037
:101780002877D2E720688069C007F0D02068816997
:1017900002221143816147482168814202D14649B2
:1017A00060680860207C40210128206882693AD066
:1017B0000A438261607C01218903012820688269D3
:1017C00033D08A438261A07C01210903012820686B
:1017D00082692CD00A43826121688869032212023F
:1017E0009043A2681043886120688169A4229143D4
:1017F000816121680A69102082430A61E168012938
:1018000017D000291DD02022022916D021688B690B
:1018100080273B438B6121680B6903430B61E068C0
:1018200003280AD00DE08A43C3E70A43CAE78A4384
:10183000D1E720688169042201E0206881691143B1
:101840008161207E7F21400649064018E169090236
:10185000FF3901390843216A491E0843A18A0A0455
:1018600001210904521A10432268D0610320A268A2
:101870000002824210D1E26AA06A1202FF3A401EC0
:10188000013A1043226B1201103A1043A28C120449
:10189000511A08432168C86020688030016CE26BEF
:1018A000114301642046FFF715FC0020A065206667
:1018B0002E77F8BD0064004000650040F0B599B097
:1018C0000446142113A8FEF7D7FD4C216846FEF705
:1018D000D3FD01204006384B226800254114374FC4
:1018E000374C46139A4223D100901291684600F07B
:1018F00079FB002801D0FFF7EBFB3868401C38600B
:10190000012805D1E06B3043E063E06B3040189074
:10191000616B082001436163616B13AA01400320DE
:101920001891022123C2179013A91695254836E075
:10193000254B9A423DD100901291684600F052FB2F
:10194000002801D0FFF7C4FB3868401C386001282C
:1019500005D1E06B3043E063E06B30401890616B81
:10196000042001436163616B01401891606B0227A1
:1019700038436063606B0324384018900820159545
:1019800013A91695179481C11048083900F0DCF8A6
:10199000159513A90E48149713961695179400F0F1
:1019A000D3F800221146152000F0EAFA152000F0C5
:1019B000DBFA19B0F0BD0000006400400000002018
:1019C00000100240000C0050006800400008005069
:1019D00000040050FEB507462848294D0E468742B0
:1019E00027D128A0FEF76EFC0024F00720D06B461C
:1019F0002A4640213846FFF759FD27A02968FEF7FF
:101A000061FCE868010C26A0FEF75CFC6D462A5DCF
:101A1000214625A0FEF756FC641CE4B2082CF6D340
:101A20001CA0FEF74FFC002201213846FFF79CFC6A
:101A3000FEBD21488742FBD120A0FEF743FC0024D5
:101A4000F007F5D00E4A6B46283240213846FFF7A2
:101A50002DFD11A02968FEF735FCE868010C10A0E7
:101A6000FEF730FC6D462A5D214619A0FEF72AFCE0
:101A7000641CE4B2082CF6D3D2E70000B8000020C2
:101A8000200000206765742063616E312072782029
:101A9000646174610A00000069643A2523782000BB
:101AA0006C656E3A256420007278646174615B2510
:101AB000645D3A25642C00001C01002067657420D9
:101AC00063616E3220727820646174610A000000E4
:101AD0007278646174615B25645D3A25640000007E
:101AE0007047014640310A7F012A05D0016E042269
:101AF000114301660120704702220A7701688A6952
:101B0000520852008A6100210166084670477047FA
:101B100070477047704770477047704770B5084D01
:101B20000446E868204203D0EC60204600F00AF842
:101B30002869204203D02C612046FFF7EEFF70BDDC
:101B40000018024070470000F0B5002303249DE018
:101B500001259D402A4072D00E79B607B60F012E9E
:101B600001D0022E16D186682746B4465E00B646DE
:101B7000B7406646BE43B446CF687646B740664631
:101B8000374387604668AE430D79ED06ED0F9D4003
:101B9000354345600D79ED43AD0708D0C5685F005A
:101BA0002646BE40B5438E68BE402E43C6600D79C2
:101BB000AD07AD0F022D0ED1DD08AD002D18AC46DE
:101BC0002D6A5E07F60E0F27B740BD430F69B74079
:101BD0002F4365462F6205685F002646BE40B54329
:101BE0000E79B607B60FBE402E4306604D68AD03B2
:101BF000AD0F4AD09E08284DB6007519AC462D6E23
:101C00009E07F60E0F27B740BD4305273F07B84292
:101C100001D1002715E0214FB84201D1012710E082
:101C20001F4FB84201D102270BE01E4FB84201D12D
:101C3000032706E01C4FB84202D1042701E024E04C
:101C40000527B7402F43144D664637662D684E680A
:101C50009543F60200D515430F4F3D607D684E68F1
:101C60009543B60200D515437D600B4E80367568EE
:101C70004F689543BF0300D51543756035684F68BD
:101C80009543FF0300D5154335605B1C0A68154674
:101C9000DD4000D05CE7F0BD0018024000040050B9
:101CA00000080050000C005000100050002A01D025
:101CB0008161704781627047014880687047000009
:101CC0000400002070B5024640325378202B1CD10E
:101CD0001378012B19D00123137024245470046845
:101CE00025689D432560046825681E03B54325606B
:101CF000046825680D432560006801681943016088
:101D0000202050700020107070BD022070BD70B592
:101D1000024640325378202B1BD11378012B18D068
:101D2000012414702423537003681D68A5431D60AB
:101D300005682B680F263602B34309021943296050
:101D4000006801682143016020205070002010705D
:101D500070BD022070BD000070B5040006D025469D
:101D6000403568780026002802D005E0012070BDCB
:101D70002E70204600F04EF824206870206801681C
:101D80004908490001600F216068090688432168FD
:101D9000086121688A680120C00382438A60E16883
:101DA0000129A1682FD0212292021143226891605B
:101DB0000121E268C902022A2268536825D08B43B8
:101DC000536021684A68124B1A434A602168CA6806
:101DD0008243CA60616920690843A1690902084316
:101DE0002168C860216AE0690843216808602068AA
:101DF0000168012211430160666420206870266337
:101E0000AE70002070BD0143D0E70B43D8E700005F
:101E100000800002F0B599B00446142113A8FEF723
:101E20002BFB4C216846FEF727FB1F4920688842A0
:101E300038D12020002500900695684600F0D2F8A1
:101E4000002801D0FFF744F9184C606B01210843CA
:101E50006063606B08401890616B0220014361630E
:101E6000616B0627014018914002122615951797BD
:101E7000169513A941C1052000070839FFF764FE34
:101E80004020159513A91797169541C108480839A0
:101E9000FFF75AFEE16B012040050143E163E16B6E
:101EA0000140189119B0F0BD0054004000100240EC
:101EB00000040050024881680278891881607047E8
:101EC0000400002010B50848002401688215114361
:101ED0000160032000F00AF8002801D0012401E08D
:101EE00000F028F8204610BD0020024070B50F4ECB
:101EF000002431780546002915D07D20C000FEF76A
:101F0000BDFA01460A480068FEF7B8FA00F022FF61
:101F1000002808D1042D06D200222946401E00F0D8
:101F20002FF8756000E00124204670BD04000020F9
:101F30001000002008B50B48016801221143016020
:101F400000681040009007484038C26B01040A4303
:101F5000C263C06B084000900320400200F0F0FE16
:101F600008BD000040100240002805DBC106C90E74
:101F700001208840014908607047000000E100E04E
:101F800010B501F0F3FC10BD10B50F4C2168032211
:101F90005202914301432160C11FFF39FA390ED12A
:101FA0000A480621006848430949FEF767FA401CC1
:101FB00002E0002805D0401E61694905F9D40020DF
:101FC00010BD032010BD0000007000401000002074
:101FD00040420F00024801688215114301607047BA
:101FE00000700040FEB5044600680027984D994EE9
:101FF000800355D500200090F06BC00007D4F16B32
:10200000A8050143F163F16B014001200090924863
:102010000168821511430160FFF74EFE019005E053
:10202000FFF74AFE0199401A022825D88A4800681D
:10203000C005F5D5E8690321090208400FD0216CDD
:1020400081420CD0E86903210902EA698843012131
:1020500009040A43EA61EA698A43EA61E861C00760
:102060000FD0FFF729FE019008E0FFF725FE019948
:10207000411A7A48814201D9032709E0E8698007BB
:10208000F3D5E869032109028843216C0843E8611C
:102090000098002804D0F16B012000078143F16310
:1020A0002078C00705D0686961688008800008430F
:1020B00068612078800705D568690C218843A1688C
:1020C000084368612078400705D568693021884356
:1020D000E168084368612078C00606D56869032175
:1020E000890288432169084368612088C00406D5B5
:1020F000686903210902884361690843686120888F
:10210000800506D56869032189048843A16A0843CC
:1021100068612088400506D5686903210905884360
:10212000E16A084368612078800606D56869032162
:1021300009038843A169084368612078400606D5F1
:102140006869032189038843E1690843686120883D
:1021500040040ED56869216B8000800808436861DF
:102160000121206B8907884203D1F0688913084355
:10217000F0602068000305D5686940218843616BE1
:10218000084368612068810235480BD5696982106F
:10219000A36B914319436961A16B914202D1F1682C
:1021A0000143F160216849020AD56969E26B814304
:1021B00011436961E16B814202D1F1680143F16031
:1021C000218809050DD5A969226A8908890011436A
:1021D000A961216A012904D1F16801221204114385
:1021E000F160218889040DD5A9690C229143626AA6
:1021F0001143A961616A042904D1F1680122120422
:102200001143F1602168C9010ED5A96903221203A7
:102210009143626C1143A9610122616C52039142A6
:1022200002D1F1680143F160216889010DD5A969E6
:10223000032212029143A26C1143A961A26CD11F27
:10224000F93902D1F1680143F1603846FEBD000062
:10225000401002400010024000700040881300004F
:1022600000000001F8B50F46060043D04D4D286828
:102270004007400FB84213D22868C008C000384356
:102280002860FFF719FD044605E0FFF715FD011B67
:102290004548814261D828684007400FB842F4D1D0
:1022A0003068424C81070DD5400704D5A06807214E
:1022B00009030843A060A0680F2109028843B168A0
:1022C0000843A0603078C00732D0706801280AD077
:1022D00002280BD000280FD03449403103280ED0FB
:1022E000C969890704E02168890301E0216889013F
:1022F000002906DB0120F8BD21684905F8E7096AD5
:10230000EFE7A168C908C9000143A160FFF7D4FC49
:10231000009006E0FFF7D0FC0099411A2248814264
:102320001BD8A068382108407168C9008842F1D1E3
:1023300028684007400FB84217D91A480168C908F1
:10234000C90039430160FFF7B7FC054607E0FFF716
:10235000B3FC411B1448814201D90320F8BD114848
:1023600000684007400FB842F1D13078400706D5E9
:10237000A068072109038843F1680843A06000F0C2
:1023800031F8A1683C2289091140094A515CC9060B
:10239000C90EC8400749086007480068FFF7A6FD56
:1023A000F8BD000000200240881300000010024029
:1023B000443A0008100000200800002006480749A1
:1023C00000688968064A4904490F8900515CC906BA
:1023D000C90EC840704700001000002000100240E5
:1023E000843A000810B5204CA068204A8006400FAF
:1023F00016D0A0688006410F501001290FD0A168A7
:102400008906490F022912D0A0688006400F0428CF
:1024100023D0A0688006400F032821D0002010BDE3
:10242000206801218004400F8140104612E0E168DD
:102430008B07E1689B0F4906490F491C032B00D00D
:102440001046FEF71BF8E1684904490E4843E1686D
:10245000490F491CFEF712F810BD0120C00310BD42
:102460007D20000210BD0000001002400024F40096
:10247000F8B504007ED020783827C007FE4D00282C
:1024800046D0A868E96838408907890F102802D02B
:1024900008280BD001E0032908D00120626800045D
:1024A00082420AD129680143296015E02868800327
:1024B0002ED560680028DDD02AE0052301211B0409
:1024C00089049A422A6802D10A432A60EAE78243D1
:1024D0002A60286888432860606800280CD0FFF7CD
:1024E000EBFB064604E0FFF7E7FB801B642873D88C
:1024F00028688003F7D50BE0FFF7DEFB064604E013
:10250000FFF7DAFB801B6428F1D828688003F7D432
:102510002078800769D5A868E96838408A070721CC
:10252000920FC902102802D0002813D001E0022A1D
:1025300010D0E068002846D0286888432169084305
:1025400028602868FF21013108432860FFF7B4FBA9
:1025500006462CE02A68520502D5E268002A89D096
:102560006A687F231B029A4363691B021A436A60ED
:10257000002800E08DE00ED12868884321690843D7
:102580002860286801218004400F8140BB48FDF786
:1025900075FFBB490860BB480068FFF7A7FC00282F
:1025A00077D122E0FFF788FB801B02289FD828689C
:1025B0004005F7D568687F210902884361690902EF
:1025C0000843686011E02968FF20013081432960D9
:1025D000FFF772FB064605E0B5E0FFF76DFB801BD9
:1025E000022884D828684005F7D42078A64E000732
:1025F0002ED5A8688006400F03280AD0A0690028BD
:10260000306A16D0012108433062FFF755FB0746B8
:102610000BE0306A80071BD5A06900289FD017E027
:10262000FFF74AFBC01B0228C0D8306A8007F7D5E5
:102630000EE0400840003062FFF73EFB074604E032
:10264000FFF73AFBC01B02287DD8306A8007F7D419
:10265000207840076BD5A86800278006400F042823
:1026600018D0E86BC00008D4E96B012000070143D3
:10267000E963E96B01400127009184480168C905BD
:1026800019D40168821511430160FFF715FB009012
:102690000DE083E0F069800749D5A06800287DD06F
:1026A00045E0FFF709FB0099401A02284BD877480C
:1026B0000068C005F5D5A168012910D004200529BE
:1026C000F16911D049084900F161F1698143F16173
:1026D000A068002816D0FFF7EFFA00900EE0F0692E
:1026E00001210843F061F3E70143F161F7E7FFF7E8
:1026F000E3FA0099411A6648814224D8F0698007BC
:10270000F5D50DE0FFF7D8FA009006E0FFF7D4FA10
:102710000099411A5E4881427FD8F0698007F5D45C
:10272000002F04D0E96B012000078143E963207882
:10273000800624D50120E16980050029296810D090
:102740000143296000E068E0FFF7B6FA064604E0BE
:10275000FFF7B2FA801B02285FD828680002F7D57D
:102760000DE081432960FFF7A7FA064604E0FFF772
:10277000A3FA801B022850D828680002F7D4206AE8
:10278000002844D0A9688906490F02294FD00126A4
:1027900036060228286807D0B04300E07FE02860B2
:1027A000FFF78AFA04463AE0B0432860FFF784FA5C
:1027B000074604E0FFF780FAC01B02282DD82868DE
:1027C0008001F7D4A16A606AE26A0843216B1202B1
:1027D00011430843616B0843A16B0843E9682D4A24
:1027E00011400843E860286830432860E868012108
:1027F00009070843E860FFF75FFA044604E0FFF7C3
:102800005BFA001B022808D828688001F7D548E049
:10281000FFF752FA001B022801D90320F8BD2868EF
:102820008001F5D4E8681C490840E86039E00128D7
:10283000F4D0E868626A8107890F91422FD1702134
:10284000A26A014091422AD17F21E26A0902014035
:102850001202914223D11F214904226B014091426F
:102860001DD107214906626B0140914217D1400FEB
:10287000A16B4007884211E0001002400024F400E0
:1028800010000020080000204010024000700040AE
:10289000881300008C80C111FCFFFEEE01D00120E6
:1028A000F8BD0020F8BD000070B504460120002CE2
:1028B0004BD025462035687A002806D12872112091
:1028C000C0026060204600F047F80220687220686D
:1028D000C168C943C90639D5CA214162216853205C
:1028E0004862204600F0FAFC002829D1206881695E
:1028F000184A1140816121688869A268E369104320
:1029000062691A4310438861216820690861206860
:102910000169A289120411430161204600F000FD03
:1029200000280DD121688A69D200D2088A61216805
:102930008A69636AA6691A43236A33431A438A6120
:102940002268FF215162002801D070BD00200121C2
:10295000697270BDBFFF8FFB10B594B004464C2167
:102960006846FDF789FD1049206888421AD1012088
:1029700040040090401210906846FFF733FB002897
:1029800001D0FEF7A5FB0948C1690122D20311431A
:10299000C16106484038C26B01150A43C263C06B6F
:1029A0000840139014B010BD0028004040100240B1
:1029B000F8B5064605462036307A0B4601280FD07A
:1029C0000127377202207072002A0BD0D8789C78C9
:1029D000000404435878097800024903084317E0CB
:1029E0000220F8BD5878C10603D5EF2108400A300F
:1029F0005870D87800F066FC0404587800F062FC47
:102A000000020443987800F05DFC0443187840030A
:102A100004432968CA20486229685320486228462E
:102A200000F05CFC002806D1074804402868446098
:102A3000284600F075FC2A68FF215162002800D169
:102A4000777200213172F8BD3FFFFF00F7B50646EF
:102A500005462036307A0C46012810D0012030720D
:102A6000022070722968CA2048622968532048628F
:102A7000284600F033FC0027002802D027E002207F
:102A8000FEBD029800282868806926D0400600D440
:102A9000E7702078A378000403436078E1780002AF
:102AA00089050843034318480340286803602868E1
:102AB000816901229204914381612169E0680843A0
:102AC00029688A6910438861284600F029FC2A6831
:102AD000FF215162002813D014E0400600D4E770B3
:102AE000207800F0EFFB0304607800F0EBFB0002BD
:102AF0000343A07800F0E6FB0343E0788005D1E7CC
:102B0000012171723772FEBD7F7F7F0070B5044670
:102B100021680A48C860FFF7CFF87D260546F60011
:102B200006E0FFF7C9F8401BB04201D9032070BD91
:102B30002068C0688006F4D5002070BD5F000100E9
:102B4000F8B504000CD0606A002500280AD0256181
:102B5000656126464036A562707F002808D00BE0EC
:102B60000120F8BD6168C81FFD38F2D0E561F0E7CB
:102B70003577204600F05CF8022272772068016801
:102B80004023994301600723E1681B02994201D960
:102B9000002001E0012000030F273F02B94202D0CC
:102BA000994200D0A562FF236168053319402127AF
:102BB000A368BF023B40194323691340227D194398
:102BC000D207D20F11430123A2695B021A401143BD
:102BD000E26938231A401143226A80231A401143C4
:102BE000A26A9B011A40114322681160A169042264
:102BF000090C1140626A10231A401143626B0823CA
:102C00001A4011430F23E2681B021A4011430122AC
:102C1000120310400143206841602068C1695210CE
:102C20009143C1612566012070770020F8BD000046
:102C3000F0B587B0064614216846FDF71DFC394AF9
:102C400031680024384801270225914232D13649A3
:102C500040310B68821413430B60096811400591E1
:102C6000416B39434163406B0195384005908220A8
:102C70000090032003900520029469460494000705
:102C8000FEF762FF2A4D2948286011206860EC6039
:102C90002C616C61AC61EC6110202C62A86028464C
:102CA000FEF7EAFA002801D0FEF712FA7565AE6267
:102CB00007B0F0BD1F4A9142FAD1C26B09140A4312
:102CC000C263C26B0A400592426B04210A4342630D
:102CD000426B0A400592426B2A434263406B00916B
:102CE0002840059002940497019503946946124880
:102CF000FEF72AFF0120C002104E009002940394B8
:102D00006946019504943046FEF71EFFFF2001300E
:102D10000090029469460497019503943046FEF7AB
:102D200013FFC5E7003001400010024008000240D8
:102D3000C802002000380040000800500004005085
:102D400003490A6803235B029A4302430A607047FF
:102D500000000140094910B5401E884201D90120F8
:102D600010BD074C60610321081F00F0FFFD00202B
:102D7000A06107202061002010BD0000FFFFFF00C0
:102D800000E000E010B5014680310A79012A15D033
:102D900001220A7124228A60026813681468640898
:102DA00064001460012252079343002242660068C7
:102DB0000360202088600A71104610BD022010BDFB
:102DC00070B5044605468034207901281AD00120C8
:102DD00020712420A060286806680268520852000A
:102DE00002602868826807235B069A430A43826070
:102DF000284600F013FB286806602020A060002011
:102E0000207170BD022070BD70B504460546803447
:102E10002079012819D0012020712420A060286881
:102E20000668026852085200026028688268D20070
:102E3000D2080A438260284600F0F0FA286806604B
:102E40002020A0600020207170BD022070BD70B5F0
:102E5000040005D025468035A868002802D006E089
:102E6000012070BD00202871204600F027F82420A2
:102E7000A86020680168490849000160A06A00282C
:102E800002D0204600F0ECFA204600F0DDFB0128DD
:102E9000E7D0206841680922D2029143416020684E
:102EA00081682A22914381602068016801221143D0
:102EB0000160204600F03AFB70BD000010B59AB0EA
:102EC0000446142113A8FDF7D7FA4C216846FDF7F4
:102ED000D3FA16492068884226D1042000240090A5
:102EE00003946846FFF77EF8002801D0FEF7F0F85B
:102EF0000F48C26B012189040A43C263C26B0A40B6
:102F00001892426B08210A434263406B15940840B3
:102F1000189003200002139002201490169413A915
:102F200017940448FEF710FE1AB010BD0048004088
:102F300000100240000C0050FEE7000008B50848F1
:102F4000816B012211438163806B1040002200904D
:102F500011460920FFF714F80920FFF705F808BD0E
:102F60000010024010B5154813490160002141606E
:102F70000322C26081600174417481741022426135
:102F8000012202238261C361026243628262416361
:102F90008163C3620263C163FEF7BEFB002801D0F8
:102FA000FEF796F80548FEF79CFD00220121034834
:102FB000FEF7DAF910BD000000640040B800002000
:102FC00010B5154813490160002141600322C26019
:102FD00081600174417481741022426101220223D4
:102FE0008261C36102624362826241638163C36240
:102FF0000263C163FEF790FB002801D0FEF768F87A
:103000000548FEF76EFD002201210348FEF7ACF9EA
:1030100010BD0000006800401C010020F0B587B022
:1030200014216846FDF728FA2A48426B04210A4316
:103030004263426B0A400592426B20210A4342637D
:10304000426B0A400592416B012421434163416B6D
:1030500021400591426B02210A434263426B0A40C0
:103060000592426B08210A434263406B1A4F0840A5
:103070000590012210213846FEF718FE0122960223
:1030800031461648FEF712FE10200025694631C170
:10309000694638460395FEF757FD600200902120EF
:1030A00000040190694602940D48FEF74DFD02951B
:1030B00069460A48009603950194FEF745FD0022F3
:1030C00011460720FEF75CFF0720FEF74DFF07B013
:1030D000F0BD000000100240000C0050000800503D
:1030E0000004005010B513481149016012494160B5
:1030F000002181600161416181610122C161C26081
:103100000162FEF729FE002801D0FDF7E1FF002152
:103110000848FEF7D7FD002801D0FDF7D9FF0021B0
:103120000448FEF7F4FD002801D0FDF7D1FF10BDE3
:1031300000540040800100206621C10010B586B017
:1031400014216846FDF798F900241C4805941A4993
:10315000846001607F21C16044618461FF21C4619A
:1031600001610121890744620162FFF79DFB00288C
:1031700001D0FDF7ADFF684604704470847001947F
:103180000394012269460D480494FFF75FFC002870
:1031900001D0FDF79DFF01206946087548758875C7
:1031A000CC75024605A90548FFF702FC002801D0AE
:1031B000FDF78EFF06B010BD00280040D4010020AE
:1031C00010B511480F490160FF210531416001210F
:1031D000C903816007210902C160002101614161C9
:1031E000C161012201625202416282618162072251
:1031F0000163C2624163FFF7A3FC002801D0FDF721
:1032000067FF10BD003001400002002010B51148DA
:103210000F490160FF210531416007221202C2609F
:103220000021816002220261012242615202826118
:10323000016238224162C261816207220163C26277
:103240004163FFF77DFC002801D0FDF741FF10BD71
:10325000003800406402002010B51848164901608B
:10326000E1214902416000218160C1600161816109
:10327000C16101620C22416242618162FFF7E7FD98
:10328000002801D0FDF724FF00210C48FFF7BCFD0A
:10329000002801D0FDF71CFF00210848FFF790FD32
:1032A000002801D0FDF714FF0448FFF76BFD00284C
:1032B00001D0FDF70DFF10BD00480040280300209D
:1032C000FEE770470022014602E00A39C9B2521CEB
:1032D0000A29FAD21007000E08437047F8B50446D1
:1032E00000680025C168490618D4C16880221143CE
:1032F000C160FEF7E1FC27460646203708E0FEF7EE
:10330000DBFC811B7D20C000814201D903257D7239
:103310002068C068400601D4032DF0D12846F8BDCE
:10332000F8B5124C0026E16880229143E160A16962
:10333000054689062035002907DBFFF7E7FB002853
:1033400011D00320687206460DE0A1692027B94319
:10335000A161FFF7DBFB002802D00320687206465C
:10336000A0693843A0613046F8BD00000028004045
:10337000704710B5FEF79EFD10BD000030B593B04C
:103380003C216846FDF778F8002401200F94109442
:10339000119440021294FEF7F7FDFEF71BFE17484A
:1033A000C16918229143C1610520009001200004E9
:1033B0000190012002900320099010200B904003FF
:1033C00002250C90089500020D9000010E900A94C1
:1033D0006846FFF74DF8002801D072B6FEE70720D7
:1033E0000F9011940221109512940FA8FEF73AFF46
:1033F000002801D072B6FEE713B030BD4010024085
:103400007047000010B50348FEF7CFF80248FEF7FA
:10341000CCF810BDB80000201C010020F8B504460F
:10342000416E4034002915D0006881688068090128
:103430004D0F0A4E400F3746315C083F385CC000E4
:10344000FDF71CF86085785D715DC000FDF716F82A
:103450002085F8BD01206085FAE700003C3A0008AD
:1034600010B5018D090707D501684A680123DB0300
:103470009A43836B1A434A60018DC90707D00168DC
:103480004A6801235B049A43C36A1A434A60018D68
:10349000890707D501684A6801231B049A43036B17
:1034A0001A434A60018D490707D501684A6801231C
:1034B0009B049A43436B1A434A60018DC90607D5A2
:1034C0000268916801231B039943C36B1943916000
:1034D000018D890607D501688A6801235B039A4339
:1034E000036C1A438A60018D490612D503685A6835
:1034F00001210905446C8A4322435A60426C8A4286
:1035000007D10268516803235B059943836C194313
:103510005160018D090607D501684A680123DB0463
:10352000C06C9A4302434A6010BD0000FEB50546D8
:103530000026803504462E61FEF7BEFB0190206810
:10354000006820270007002817DA2548009000228D
:1035500039042046019B00F0C1F900280DD0EFF39B
:103560001080012181F3108821680A6880239A4322
:103570000A6080F31088AF6028E020680068400788
:1035800027D5174800900121002289052046019B7C
:1035900000F0A4F900281CD0EFF31080012181F382
:1035A000108821680A68FF2321339A430A6080F358
:1035B0001088EFF31080012181F3108821688A6858
:1035C000520852008A6080F31088EF602E71032049
:1035D000FEBDAF60EF60E66626672E710020FEBD7F
:1035E000FFFFFF0110B5EFF31081012282F3108875
:1035F00002681368FF242134A343136081F3108809
:10360000EFF31081012282F31088026893680D4C59
:103610002340936081F31088C16E01290BD1EFF331
:103620001081012282F31088026813681024A343DA
:10363000136081F3108820228C210A500021C1667A
:10364000416710BDFEFFFFEFF8B5044601688068D2
:103650002569E7692843656900263D432843904A68
:10366000904B0D68904F3D4005430D6021684868C0
:1036700003252D03A843E568284348602168A06915
:10368000914203D0994201D0256A28438D68874F23
:103690003D4005438D602068C16A656A09090901DA
:1036A0002943C162824D21688248A9420AD14069FA
:1036B0008007800F4ED001285DD002284AD0032811
:1036C00047D15AE07C4DA9420AD140690C252840D7
:1036D00040D004283ED008284BD00C2839D14CE0EB
:1036E000764DA9420AD140693025284032D01028B1
:1036F00041D020283DD030282BD13EE0704DA9424A
:1037000014D0704DA94211D06F4DA9420ED09142F4
:103710000ED1456903208002054007D001208002B8
:103720002D1A28D02D1A24D0281A10E0002011E0DC
:1037300099420ED1406903252D0228400AD0FF3856
:10374000401E18D0FF38401E13D0FF380138002823
:1037500013D010205D4D5E4F914201D0994240D16F
:1037600000280CD0022814D004280BD0082837D108
:103770000DE00220EEE70420ECE70820EAE7FEF780
:103780001DFE01E0FEF72EFE050002D17EE00125C0
:10379000ED03606A4000395A28460091FCF76EFE3E
:1037A00067687900791881426BD83903814268D300
:1037B000002328461946009AFCF702FD020E090272
:1037C0000302780811431818002251413A46002399
:1037D000FCF7F6FC032109023E4A411A914253D9F3
:1037E0004FE00121E269C9038A4228D1002806D0AE
:1037F00002280DD0042805D0082842D107E0FEF7A2
:10380000DDFD01E0FEF7EEFD050001D13EE00D46D5
:10381000606A4000395A2846FCF730FE6168400073
:103820004A088018FCF72AFE01462B4A10399142BB
:1038300027D8511C01400007400F084324E000280E
:1038400006D002280DD0042805D0082819D107E099
:10385000FEF7B4FD01E0FEF7C5FD050001D115E05E
:103860000D46606A4000395A2846FCF707FE616839
:103870004A088018FCF702FE0146174A10399142A7
:1038800001D9012602E080B22168C86020460121EA
:1038900040304185018500206067A0673046F8BD53
:1038A0000080004000840040F369FFCFFFF4FF1167
:1038B00000380140401002400044004000480040F1
:1038C000004C004000500040003C01400024F40047
:1038D0001C3A0008FFFC0F00EFFF0000FFB581B0AD
:1038E00005460E46044680350A9F32E0781C30D0EB
:1038F000FEF7E2F90499401AB84218D8002F16D002
:1039000020680168490724D5802E22D0402E20D07F
:10391000C169C94309070CD4082606622046FFF78F
:1039200061FE2E6100202871012005B0F0BD03204A
:10393000FBE7C069C04300050BD401202168C00229
:1039400008622046FFF74EFE2020286100202871E3
:10395000EDE72068C1693046884305D0002103980F
:103960008142C3D00020E0E70121F8E78307FF226E
:10397000DB0E9A408907090E9940002808DB83086E
:1039800009489B001B18186890430843186070474B
:103990000007000F0838830804489B001B18D869EB
:1039A00090430843D861704700E400E000ED00E078
:1039B0000349CA695206FCD5C2B28A627047000048
:1039C00000480040FEF77EFAFFF7D8FCFFF726FB21
:1039D000FFF7B4FAFFF7B2FBFFF73EFCFFF782FBFD
:1039E000FFF714FCFFF7ECFBFFF7BCFAFFF7E8FA70
:1039F000054CFDF7C3FA2046FDF7A4FCFDF7F0FAED
:103A00002046FDF79FFCF4E7881300000001020345
:103A100004050607080C10141820304001000200AD
:103A20000400060008000A000C00100020004000FE
:103A300080000001010101030701000008040204E5
:103A4000080101010000000000000000000000006B
:103A50000000000000000000000000000000000066
:103A60000000000001000000020000000300000050
:103A7000040000000600000007000000080000002D
:103A8000090000000000000000000000000000002D
:103A90000000000001000000020000000300000020
:103AA0000400000030313233343536373839414282
:103AB0004344454640305800303132333435363790
:103AC000383961626364656640307800040000083C
:103AD000000000000000000200010000103A7474B1
:103AE000003A7474003A7474000000000C3B000843
:103AF0000000002020000000000100082C3B00080E
:103B000020000020F80A00001C010008000000004E
:103B10000100000004000000000000000024F40088
:0C3B200000000000000000000000000099
:04000005080000BD32
:00000001FF
