:020000040800F2
:1000000070060020D500000881320008091E000893
:1000100000000000000000000000000000000000E0
:10002000000000000000000000000000A1350008F2
:10003000000000000000000083320008A335000823
:10004000E7000008E7000008E7000008E7000008F4
:10005000E7000008E7000008E70000088B0300083D
:10006000E700000809020008E7000008E7000008B0
:10007000E7000008E7000008E7000008E7000008C4
:10008000E7000008E7000008E7000008E7000008B4
:10009000E7000008E7000008E7000008E7000008A4
:1000A000E7000008E7000008E7000008E700000894
:1000B000E7000008E7000008E7000008044885465C
:1000C00000F090F8004800470B3D0008C046C046CD
:1000D000700600200448804704480047FEE7FEE71A
:1000E000FEE7FEE7FEE7FEE731360008BD00000848
:1000F00030B50B46014600202022012409E00D46C0
:10010000D5409D4205D31D469540491B2546954047
:1001100040191546521E002DF1DC30BDF0B51FB45C
:100120000646002082B005464024019100901BE065
:10013000019922460F46304600F042F8049A059B8A
:10014000801A994110D310461946224600F028F82B
:10015000361A8F410197224601200021009F00F0AE
:100160001FF838184D4100902046641E0028DFDC3F
:10017000019B00982946324607B0F0BDD2B201E09B
:100180000270401C491EFBD270470022F6E710B5F2
:1001900013460A4604461946FFF7F0FF204610BDF5
:1001A00010B5202A04DB0146203A9140002010BD02
:1001B000914020239C1A0346E3401943904010BD10
:1001C00010B5202A04DB0846203AD040002110BD9B
:1001D0000B46D340D0402024A21A91400843194630
:1001E00010BD0000064C0125064E05E0E36807CC73
:1001F0002B430C3C98471034B442F7D3FFF762FF0F
:10020000041302082413020810B5024800F070F924
:1002100010BD00007C010020F8B504460668406C63
:100220000D4F8508F0B2AD0014210838FFF760FFCC
:10023000BE4203D209496918A16404E007491C3190
:100240006918C01DA16405498031E164C106C90E69
:10025000012088402065F8BD0804024000080240E3
:100260000179084B4906490E8A00D2184265054AB1
:100270004432491E82658A07920F01219140C1656F
:1002800070470000FC08024030B5C46C056D656025
:10029000446D002C02D0846DC56D6560446C1C25D6
:1002A0002C400125A540046C656004686360836888
:1002B000102B036803D099600068C26030BD9A605B
:1002C0000068C16030BD00003EB50B4CFF23FF212C
:1002D0004133F0222331B420009402F069F9002068
:1002E0001021019103460290FF2104A200942B31BA
:1002F000B92002F013FE3EBD30840000436C6561FE
:10030000720000007FB50D4A01AD07CA07C5FF2680
:10031000002440360C3D6000285A009020462821D9
:100320004843014627318AB280B23346002102F0A9
:100330003FF9641C062CEEDB7FBD00007012020842
:10034000F8B50024FF2740370A20254645432846B4
:10035000093086B22002001B1721FFF7C9FEC1B287
:10036000C8088A08C00092000002D2001043C908E1
:10037000084300903B4632460021284602F018F917
:10038000641CE4B2182CDFD3F8BD10B50120400284
:1003900000F0D0F910BD72B6FEE7000010B586B0CF
:1003A00014216846FFF7F1FE0E48426B02210A4312
:1003B0004263406B0C4C08400590082000900120DF
:1003C00001900290032003906946204600F0C8F98E
:1003D00001220821204600F07AFA044801F032FD9B
:1003E00006B010BD00100240000C005018000020A4
:1003F00010B5022000F02CF80007000F10BD00001F
:100400001CB5022000F024F80007104C000F2071EA
:100410001AD001A800902046042303223821083076
:1004200001F003FE68460079810961710007010D42
:10043000684640790143684680790007020D6846A6
:10044000C0792180024362801CBD000010000020A2
:1004500010B502463821024801F025FE10BD00000B
:100460001800002010B50B4602463821014801F063
:1004700046FE10BD1800002010B5FFF78FFF00F0FA
:100480000BF8802000F02DF8012000F024F80A205D
:1004900000F018F810BD000010B5094C002208212A
:1004A000204600F014FA0A2000F030F90122082159
:1004B000204600F00CFA642000F028F910BD00007E
:1004C000000C005010B50E2800D90E2001468820DF
:1004D000FFF7C8FF10BD10B50146A420FFF7C2FF0B
:1004E00010BD10B501468020FFF7BCFF10BD000015
:1004F000F0B4016C0D6801680C68466C1C22042382
:1005000016401F46B7402F420ED067070CD50C6827
:10051000A40602D40C689C430C60416C11408B40D3
:10052000016C4B60016B24E00227B74003462F406B
:100530002033002F21D0A7071FD50C68A40605D4AF
:100540000C680A25AC430C6001215971174C0168F5
:10055000A142446C04D914400221A140144A04E091
:1005600014400221114AA140803A516000211971C2
:10057000C16A002918D0F0BC08470827B7402F42AD
:1005800012D0240710D50C680E25AC430C60446CC7
:10059000012114400A46A240046C6260C163597193
:1005A00000211971416BE4E7F0BC70478000024004
:1005B0000004024070B504000CD02D482568854227
:1005C0000AD22C4814212818FFF792FD800060649D
:1005D00029480BE0012070BD25481421404228180D
:1005E000FFF786FD800060642148083820640220FF
:1005F0002646203670712868204908402860E16846
:10060000A06862690843216911430843A16908434E
:10061000E1690843216A084321680A6810430860B9
:100620002046FFF7F9FD0121A068890300258842D3
:1006300000D165602079A16C4006400E0860E06C36
:10064000216D41606068401E032808D82046FFF7EE
:1006500007FE606D0560A06DE16D416002E06565BB
:10066000A565E565E563012070713571002070BDF9
:1006700008040240F8FFFDBF000002400F80FFFFAA
:10068000F8B504468C4620300179002501290BD0AD
:100690000126067141790027012907D08021E163F5
:1006A000077101252846F8BD0220F8BD02214171DD
:1006B000E7632068016849084900016061462046F7
:1006C000FFF7E2FD206B00282068016801D00E22B0
:1006D00005E0042291430160206801680A22114369
:1006E0000160A06C0168CA03074902D502680A4389
:1006F0000260606D002802D002680A430260206830
:10070000016831430160CDE70001000070B5044687
:1007100000F0E4F80546601C02D004480078241874
:1007200000F0DCF8401BA042FAD370BD240000208A
:100730007047000070B5084D0446E868204203D0B9
:10074000EC60204600F00AF82869204203D02C61B2
:100750002046FFF7EDFF70BD001802407047000013
:10076000F0B5002303249DE001259D402A4072D06E
:100770000E79B607B60F012E01D0022E16D186686B
:100780002746B4465E00B646B7406646BE43B4460A
:10079000CF687646B7406646374387604668AE43C3
:1007A0000D79ED06ED0F9D40354345600D79ED4324
:1007B000AD0708D0C5685F002646BE40B5438E68C9
:1007C000BE402E43C6600D79AD07AD0F022D0ED190
:1007D000DD08AD002D18AC462D6A5E07F60E0F271A
:1007E000B740BD430F69B7402F4365462F62056888
:1007F0005F002646BE40B5430E79B607B60FBE4031
:100800002E4306604D68AD03AD0F4AD09E08284DBB
:10081000B6007519AC462D6E9E07F60E0F27B74031
:10082000BD4305273F07B84201D1002715E0214FFE
:10083000B84201D1012710E01F4FB84201D1022771
:100840000BE01E4FB84201D1032706E01C4FB8420F
:1008500002D1042701E024E00527B7402F43144DBF
:10086000664637662D684E689543F60200D51543F7
:100870000F4F3D607D684E689543B60200D5154325
:100880007D600B4E803675684F689543BF0300D579
:100890001543756035684F689543FF0300D51543D0
:1008A00035605B1C0A681546DD4000D05CE7F0BD92
:1008B000001802400004005000080050000C0050D6
:1008C000001000500069084000D001207047002A45
:1008D00001D08161704781627047000001488068E3
:1008E000704700002400002070B502464032537863
:1008F000202B1CD11378012B19D001231370242431
:100900005470046825689D432560046825681E03AB
:10091000B5432560046825680D43256000680168BB
:1009200019430160202050700020107070BD02201B
:1009300070BD70B5024640325378202B1BD113781E
:10094000012B18D0012414702423537003681D68F0
:10095000A5431D6005682B680F263602B3430902C4
:10096000194329600068016821430160202050700C
:100970000020107070BD022070BD000070B5040032
:1009800006D02546403568780026002802D005E0CC
:10099000012070BD2E70204600F04EF824206870B3
:1009A000206801684908490001600F216068090654
:1009B00088432168086121688A680120C003824356
:1009C0008A60E1680129A1682FD021229202114397
:1009D000226891600121E268C902022A22685368F4
:1009E00025D08B43536021684A68124B1A434A60F2
:1009F0002168CA688243CA60616920690843A169A5
:100A0000090208432168C860216AE0690843216837
:100A1000086020680168012211430160666420209B
:100A200068702663AE70002070BD0143D0E70B43B1
:100A3000D8E7000000800002F0B599B00446142108
:100A400013A8FFF7A2FB4C216846FFF79EFB1F4946
:100A50002068884238D120200025009006956846FD
:100A600000F0D2F8002801D0FFF795FC184C606B1D
:100A7000012108436063606B08401890616B02209D
:100A800001436163616B0627014018914002122601
:100A900015951797169513A941C105200007083928
:100AA000FFF75EFE4020159513A91797169541C1D3
:100AB00008480839FFF754FEE16B01204005014367
:100AC000E163E16B0140189119B0F0BD00540040A2
:100AD0000010024000040050024881680278891822
:100AE000816070472400002010B508480024016888
:100AF000821511430160032000F00AF8002801D09C
:100B0000012401E000F028F8204610BD002002403A
:100B100070B50F4E002431780546002915D07D2090
:100B2000C000FFF7E5FA01460A480068FFF7E0FA5F
:100B300001F078F8002808D1042D06D200222946B9
:100B4000401E00F02FF8756000E00124204670BDC3
:100B5000240000203000002008B50B480168012265
:100B60001143016000681040009007484038C26B94
:100B700001040A43C263C06B084000900320400296
:100B800001F046F808BD000040100240002805DBD7
:100B9000C106C90E01208840014908607047000065
:100BA00000E100E010B502F0FBFF10BD10B50F4CE6
:100BB000216803225202914301432160C11FFF3982
:100BC000FA390ED10A480621006848430949FFF75F
:100BD0008FFA401C02E0002805D0401E61694905DB
:100BE000F9D4002010BD032010BD000000700040AB
:100BF0003000002040420F00024801688215114376
:100C00000160704700700040FEB504460068002790
:100C1000984D994E800355D500200090F06BC00090
:100C200007D4F16BA8050143F163F16B014001208A
:100C3000009092480168821511430160FFF74EFE53
:100C4000019005E0FFF74AFE0199401A022825D8D5
:100C50008A480068C005F5D5E86903210902084003
:100C60000FD0216C81420CD0E86903210902EA69A6
:100C70008843012109040A43EA61EA698A43EA6177
:100C8000E861C0070FD0FFF729FE019008E0FFF7E9
:100C900025FE0199411A7A48814201D9032709E0CA
:100CA000E8698007F3D5E869032109028843216CCC
:100CB0000843E8610098002804D0F16B0120000788
:100CC0008143F1632078C00705D0686961688008B6
:100CD0008000084368612078800705D568690C2189
:100CE0008843A168084368612078400705D5686992
:100CF00030218843E168084368612078C00606D542
:100D00006869032189028843216908436861208852
:100D1000C00406D568690321090288436169084354
:100D200068612088800506D56869032189048843A5
:100D3000A16A084368612088400506D568690321D7
:100D400009058843E16A084368612078800606D572
:100D50006869032109038843A16908436861207811
:100D6000400606D56869032189038843E169084381
:100D70006861208840040ED56869216B8000800876
:100D8000084368610121206B8907884203D1F0681C
:100D900089130843F0602068000305D56869402185
:100DA0008843616B084368612068810235480BD530
:100DB00069698210A36B914319436961A16B9142E8
:100DC00002D1F1680143F160216849020AD56969DD
:100DD000E26B814311436961E16B814202D1F168A9
:100DE0000143F160218809050DD5A969226A8908A6
:100DF00089001143A961216A012904D1F168012206
:100E000012041143F160218889040DD5A9690C22CF
:100E10009143626A1143A961616A042904D1F168AE
:100E2000012212041143F1602168C9010ED5A9699C
:100E3000032212039143626C1143A9610122616C88
:100E40005203914202D1F1680143F16021688901A6
:100E50000DD5A969032212029143A26C1143A96125
:100E6000A26CD11FF93902D1F1680143F160384613
:100E7000FEBD000040100240001002400070004023
:100E80008813000000000001F8B50F46060043D0AB
:100E90004D4D28684007400FB84213D22868C0085B
:100EA000C00038432860FFF719FD044605E0FFF74E
:100EB00015FD011B4548814261D828684007400F55
:100EC000B842F4D13068424C81070DD5400704D5B3
:100ED000A068072109030843A060A0680F21090248
:100EE0008843B1680843A0603078C00732D070688A
:100EF00001280AD002280BD000280FD034494031F5
:100F000003280ED0C969890704E02168890301E03C
:100F100021688901002906DB0120F8BD2168490507
:100F2000F8E7096AEFE7A168C908C9000143A160B1
:100F3000FFF7D4FC009006E0FFF7D0FC0099411ABF
:100F4000224881421BD8A068382108407168C90036
:100F50008842F1D128684007400FB84217D91A4893
:100F60000168C908C90039430160FFF7B7FC0546AD
:100F700007E0FFF7B3FC411B1448814201D903206D
:100F8000F8BD114800684007400FB842F1D13078F1
:100F9000400706D5A068072109038843F168084384
:100FA000A06000F031F8A1683C2289091140094A8B
:100FB000515CC906C90EC840074908600748006867
:100FC000FFF7A6FDF8BD00000020024088130000D6
:100FD00000100240A4120208300000202800002067
:100FE0000648074900688968064A4904490F89008C
:100FF000515CC906C90EC84070470000300000208F
:1010000000100240E412020810B5204CA068204AEB
:101010008006400F16D0A0688006410F50100129AD
:101020000FD0A1688906490F022912D0A068800656
:10103000400F042823D0A0688006400F032821D049
:10104000002010BD206801218004400F814010461F
:1010500012E0E1688B07E1689B0F4906490F491CC4
:10106000032B00D01046FFF743F8E1684904490E0E
:101070004843E168490F491CFFF73AF810BD0120C9
:10108000C00310BD7D20000210BD00000010024012
:101090000024F400F8B504007ED020783827C0077B
:1010A000FE4D002846D0A868E96838408907890FB6
:1010B000102802D008280BD001E0032908D0012015
:1010C0006268000482420AD129680143296015E060
:1010D000286880032ED560680028DDD02AE005232B
:1010E00001211B0489049A422A6802D10A432A601A
:1010F000EAE782432A6028688843286060680028FD
:101100000CD0FFF7EBFB064604E0FFF7E7FB801B84
:10111000642873D828688003F7D50BE0FFF7DEFB5F
:10112000064604E0FFF7DAFB801B6428F1D8286844
:101130008003F7D42078800769D5A868E96838402B
:101140008A070721920FC902102802D0002813D065
:1011500001E0022A10D0E068002846D028688843C1
:101160002169084328602868FF210131084328606D
:10117000FFF7B4FB06462CE02A68520502D5E26868
:10118000002A89D06A687F231B029A4363691B0285
:101190001A436A60002800E08DE00ED12868884379
:1011A000216908432860286801218004400F81409C
:1011B000BB48FEF79DFFBB490860BB480068FFF7CE
:1011C000A7FC002877D122E0FFF788FB801B0228CC
:1011D0009FD828684005F7D568687F2109028843B1
:1011E000616909020843686011E02968FF20013045
:1011F00081432960FFF772FB064605E0B5E0FFF783
:101200006DFB801B022884D828684005F7D420781D
:10121000A64E00072ED5A8688006400F03280AD0E6
:10122000A0690028306A16D0012108433062FFF718
:1012300055FB07460BE0306A80071BD5A0690028E4
:101240009FD017E0FFF74AFBC01B0228C0D8306AC6
:101250008007F7D50EE0400840003062FFF73EFB04
:10126000074604E0FFF73AFBC01B02287DD8306A2E
:101270008007F7D4207840076BD5A8680027800640
:10128000400F042818D0E86BC00008D4E96B012097
:1012900000070143E963E96B01400127009184489D
:1012A0000168C90519D40168821511430160FFF76F
:1012B00015FB00900DE083E0F069800749D5A06838
:1012C00000287DD045E0FFF709FB0099401A02286D
:1012D0004BD877480068C005F5D5A168012910D022
:1012E00004200529F16911D049084900F161F1692B
:1012F0008143F161A068002816D0FFF7EFFA009053
:101300000EE0F06901210843F061F3E70143F16168
:10131000F7E7FFF7E3FA0099411A6648814224D8BB
:10132000F0698007F5D50DE0FFF7D8FA009006E0E8
:10133000FFF7D4FA0099411A5E4881427FD8F069DC
:101340008007F5D4002F04D0E96B0120000781430A
:10135000E9632078800624D50120E1698005002911
:10136000296810D00143296000E068E0FFF7B6FA71
:10137000064604E0FFF7B2FA801B02285FD828680F
:101380000002F7D50DE081432960FFF7A7FA064672
:1013900004E0FFF7A3FA801B022850D82868000257
:1013A000F7D4206A002844D0A9688906490F022989
:1013B0004FD0012636060228286807D0B04300E047
:1013C0007FE02860FFF78AFA04463AE0B0432860DD
:1013D000FFF784FA074604E0FFF780FAC01B0228F3
:1013E0002DD828688001F7D4A16A606AE26A0843B0
:1013F000216B120211430843616B0843A16B084340
:10140000E9682D4A11400843E860286830432860A5
:10141000E868012109070843E860FFF75FFA04461E
:1014200004E0FFF75BFA001B022808D82868800157
:10143000F7D548E0FFF752FA001B022801D9032034
:10144000F8BD28688001F5D4E8681C490840E860C8
:1014500039E00128F4D0E868626A8107890F914277
:101460002FD17021A26A014091422AD17F21E26AE4
:10147000090201401202914223D11F214904226B2B
:10148000014091421DD107214906626B0140914202
:1014900017D1400FA16B4007884211E000100240B5
:1014A0000024F400300000202800002040100240FA
:1014B00000700040881300008C80C111FCFFFEEE1C
:1014C00001D00120F8BD0020F8BD000070B5044631
:1014D0000120002C4BD025462035687A002806D103
:1014E00028721120C0026060204600F047F80220F8
:1014F00068722068C168C943C90639D5CA214162EA
:10150000216853204862204601F0C8FE002829D1F6
:1015100020688169184A1140816121688869A26840
:10152000E369104362691A431043886121682069A6
:10153000086120680169A2891204114301612046F3
:1015400001F0CEFE00280DD121688A69D200D208B0
:101550008A6121688A69636AA6691A43236A3343E8
:101560001A438A612268FF215162002801D070BDB0
:1015700000200121697270BDBFFF8FFB10B594B0D0
:1015800004464C216846FEF700FE10492068884258
:101590001AD1012040040090401210906846FFF7D5
:1015A00033FB002801D0FEF7F6FE0948C16901228D
:1015B000D2031143C16106484038C26B01150A438A
:1015C000C263C06B0840139014B010BD00280040E7
:1015D00040100240F8B5064605462036307A0B46E4
:1015E00001280FD00127377202207072002A0BD019
:1015F000D8789C780004044358780978000249039D
:10160000084317E00220F8BD5878C10603D5EF2142
:1016100008400A305870D87801F034FE0404587835
:1016200001F030FE00020443987801F02BFE0443E1
:101630001878400304432968CA2048622968532067
:101640004862284601F02AFE002806D107480440D7
:1016500028684460284601F043FE2A68FF21516251
:10166000002800D1777200213172F8BD3FFFFF00E2
:10167000F7B5064605462036307A0C46012810D0CC
:1016800001203072022070722968CA2048622968DD
:1016900053204862284601F001FE0027002802D0AE
:1016A00027E00220FEBD029800282868806926D025
:1016B000400600D4E7702078A378000403436078E4
:1016C000E17800028905084303431848034028686D
:1016D0000360286881690122920491438161216934
:1016E000E068084329688A6910438861284601F048
:1016F000F7FD2A68FF215162002813D014E040064C
:1017000000D4E770207801F0BDFD0304607801F09B
:10171000B9FD00020343A07801F0B4FD0343E07873
:101720008005D1E7012171723772FEBD7F7F7F0096
:1017300070B5044621680A48C860FFF7CFF87D26D7
:101740000546F60006E0FFF7C9F8401BB04201D994
:10175000032070BD2068C0688006F4D5002070BDED
:101760005F000100064910B5884208D105490120F3
:1017700008700246052040210007FFF7A8F810BDB9
:10178000B40000200C000020F8B504000CD0606A02
:10179000002500280AD02561656126464036A562ED
:1017A000707F002808D00BE00120F8BD6168C81FD9
:1017B000FD38F2D0E561F0E73577204600F05CF8BF
:1017C0000222727720680168402399430160072351
:1017D000E1681B02994201D9002001E001200003C9
:1017E0000F273F02B94202D0994200D0A562FF23E1
:1017F0006168053319402127A368BF023B401943A4
:1018000023691340227D1943D207D20F11430123CC
:10181000A2695B021A401143E26938231A4011435E
:10182000226A80231A401143A26A9B011A40114385
:1018300022681160A1690422090C1140626A102318
:101840001A401143626B08231A4011430F23E268C8
:101850001B021A4011430122120310400143206869
:1018600041602068C16952109143C1612566012021
:1018700070770020F8BD0000F0B587B0064614214F
:101880006846FEF782FC3A4A31680024394801274D
:101890000225914233D1374940310B6882141343FA
:1018A0000B60096811400591416B39434163406BFE
:1018B0000195384005908220009003200390052078
:1018C0000294694604940007FEF74AFF2B4D2A480C
:1018D0002860112068601020EC60A8606C61AC6129
:1018E000EC6180202C6228612846FEF763FE002808
:1018F00001D0FEF750FD7565AE6207B0F0BD204A1D
:101900009142FAD1C26B09140A43C263C26B0A4006
:101910000592426B04210A434263426B0A400592DE
:10192000426B2A434263406B009128400590029429
:1019300004970195039469461248FEF711FF0120B0
:10194000C002114E009002940394694601950494DC
:101950003046FEF705FFFF200130009002946946F3
:101960000497019503943046FEF7FAFEC5E70000A0
:101970000030014000100240080002407C010020BD
:10198000003800400008005000040050FFB5054634
:1019900004464035287F002781B01646012809D02B
:1019A00001202877FEF79AFF0090687F012804D075
:1019B000022797E0022005B0F0BD0298002874D0FD
:1019C000002E72D003206877002020660299A16360
:1019D000A687E6872064A880E8802065E06401226D
:1019E000A068D2034021904208D1206802688A434F
:1019F0000260206802680B021A43026020680268D5
:101A0000520602D402680A4302600721E068090214
:101A10008842606828D9002801D0012E1ED1A06B11
:101A200021680088C86006E020688168890709D5B8
:101A3000A16B0988C160A06B801CA063E08F401E71
:101A4000E0870BE0FEF74AFF0099411A04988142B3
:101A500002D3401C02D005E0002803D0E08F00280C
:101A6000E2D128E003273BE0002801D0012E1FD15E
:101A7000A06B21680078087306E0206881688907F8
:101A800009D5A16B09780173A06B401CA063E08F9E
:101A9000401EE0870CE0FEF721FF0099411A0498F0
:101AA000814203D3401C03D0DCE717E00028D9D0E3
:101AB000E08F0028E1D12046009A049901F082FCD1
:101AC000002801D020202066A068002803D12068CB
:101AD000C16880680090206E002801D0012701E0D5
:101AE0000120687700202877384664E7F8B5064675
:101AF00004464036307F0027012807D00120307788
:101B0000707F0025012803D002276AE00220F8BD7B
:101B100000294DD0002A4BD0032070772566A163A1
:101B2000A287E28725642565E564B580F5800122FA
:101B3000D203A1685010914208D121680A6840235D
:101B40009A430A6021680A6802430A60626D264966
:101B50001163626D2549D162626D25495163616DE2
:101B60008D6321684A6882434A600722E168120255
:101B7000914210D8616D8A69012189028A420AD195
:101B8000E18FC90721684A6814D002434A60E08F98
:101B90004008401CE087E38F2268A16B0C32606D27
:101BA000FEF76EFD00280AD0206E10210843206643
:101BB000012716E082434A60E08F4008EAE7206888
:101BC0000168490603D4016840221143016020687E
:101BD000416820221143416020684168022211437C
:101BE000416035773846F8BD533300085D3300084F
:101BF000313300080349884202D1034901200870AB
:101C000070470000B40000200C0000207047000066
:101C100003490A6803235B029A4302430A60704740
:101C200000000140094910B5401E884201D9012039
:101C300010BD074C60610321081F01F0B1FF0020B7
:101C4000A06107202061002010BD0000FFFFFF0001
:101C500000E000E010B5014680310A79012A15D074
:101C600001220A7124228A600268136814686408D9
:101C70006400146001225207934300224266006808
:101C80000360202088600A71104610BD022010BD3C
:101C900070B5044605468034207901281AD0012009
:101CA00020712420A060286806680268520852004B
:101CB00002602868826807235B069A430A438260B1
:101CC000284601F0B7FC286806602020A0600020AC
:101CD000207170BD022070BD70B504460546803489
:101CE0002079012819D0012020712420A0602868C3
:101CF0000668026852085200026028688268D200B2
:101D0000D2080A438260284601F094FC28680660E5
:101D10002020A0600020207170BD022070BD70B531
:101D2000040005D025468035A868002802D006E0CA
:101D3000012070BD00202871204600F027F82420E3
:101D4000A86020680168490849000160A06A00286D
:101D500002D0204601F090FC204601F081FD0128D0
:101D6000E7D0206841680922D2029143416020688F
:101D700081682A2291438160206801680122114311
:101D80000160204601F0DEFC70BD000010B59AB085
:101D90000446142113A8FEF7F8F94C216846FEF713
:101DA000F4F916492068884226D1042000240090C6
:101DB00003946846FEF728FF002801D0FEF7EBFAEF
:101DC0000F48C26B012189040A43C263C26B0A40F7
:101DD0001892426B08210A434263406B15940840F5
:101DE000189003200002139002201490169413A957
:101DF00017940448FEF7B4FC1AB010BD0048004028
:101E000000100240000C0050FEE710B50446418966
:101E100040680022FEF75BFD218900222068FEF762
:101E200056FD052001F0FAFE618901226068FEF787
:101E30004EFD052001F0F2FE618900226068FEF788
:101E400046FD10BD10B586B0044614216846FEF765
:101E50009CF96089009011200190002002900320DD
:101E6000039069466068FEF77BFC20890090694614
:101E70002068FEF775FC618901226068FEF727FD86
:101E8000218901222068FEF722FD06B010BD10B5A1
:101E90000446418940680022FEF719FD218901228C
:101EA0002068FEF714FD052001F0B8FE61890122CB
:101EB0006068FEF70CFD052001F0B0FE618900228C
:101EC0006068FEF704FD10BD70B504460189002569
:101ED00000680122FEF7FBFC00266806050E6189FA
:101EE00000226068FEF7F3FC052001F097FE61898F
:101EF00001226068FEF7EBFC21892068FEF7E2FC16
:101F0000002801D06D1CEDB2052001F087FE761C83
:101F1000F6B2082EE1D3284670BD70B50E460446D1
:101F2000418940680022FEF7D2FC0025F009218992
:101F3000206801D0012200E00022FEF7C8FC7006F4
:101F4000060E052001F06AFE618901226068FEF735
:101F5000BEFC052001F062FE618900226068FEF788
:101F6000B6FC6D1CEDB2082DE0D370BD10B5044673
:101F7000018900680122FEF7AAFC618901226068DC
:101F8000FEF7A5FC052001F049FE2189002220680A
:101F9000FEF79DFC052001F041FE6189002260688A
:101FA000FEF795FC10BD10B50446018900680022BB
:101FB000FEF78DFC618901226068FEF788FC052030
:101FC00001F02CFE218901222068FEF780FC05200B
:101FD00001F024FE10BD70B504460189002500689B
:101FE0000122FEF774FC012001F018FE6189012234
:101FF0006068FEF76CFC012001F010FE08E06D1C2B
:10200000EDB2FA2D04D92046FFF7CDFF012070BDB7
:1020100021892068FEF756FC0028F0D16189002252
:102020006068FEF754FC002070BDFFB581B01C460F
:1020300017460E460A9D0198FFF798FF7600F1B209
:102040000198FFF76AFF0198FFF7C5FF394601982D
:10205000FFF763FF0198FFF7BEFF0198FFF786FFC8
:10206000761CF1B20198FFF758FF0198FFF7B3FF14
:102070000BE00198012C0FD0FFF726FF2870019884
:10208000FFF7C3FE641EE4B26D1C002CF1D1019871
:10209000FFF789FF05B0F0BDFFF716FF2870019824
:1020A000FFF7F5FEEEE770B516460C460546FFF75E
:1020B0005DFF6400E1B22846FFF72FFF2846FFF7D7
:1020C0008AFF31462846FFF728FF2846FFF783FF9F
:1020D0002846FFF74BFF641CE1B22846FFF71DFFBF
:1020E0002846FFF778FF2846FFF7EEFE044628460D
:1020F000FFF7CDFE2846FFF756FF204670BDF8B526
:102100001E4617460C460546FFF730FF6006010ED7
:102110002846FFF702FF2846FFF75DFF39462846AD
:10212000FFF7FBFE2846FFF756FF31462846FFF72C
:10213000F4FE2846FFF74FFF2846FFF734FFF8BDAF
:10214000F8B504461D4616460F462A2000F008FF43
:10215000204600F0FCFE304600F0F9FE2B2000F097
:10216000FFFE384600F0F3FE284600F0F0FE2C207B
:1021700000F0F6FEF8BD00000EB500F0B3FAFEF771
:102180007BF90025FF234033EF222946284600959E
:1021900000F00EFA642001F034FD01220221904883
:1021A000FEF795FB8F4E20278F4CFEF729F92078FC
:1021B000030001F0E7FC08061E526C99ABC1E6056E
:1021C000F3E78A480090DB23EF221D21002000F076
:1021D00071FEFEF783FBA168401AB042E5D9FF23E8
:1021E00000214033EF220846009500F0E1F901207C
:1021F000C5E01820019000957D4B7EA2322102950A
:10220000142000F08BFE1020019000951F237DA26A
:10221000642102951E2000F081FE1F230095DB0241
:102220007CA2962150200197029500F0EBFBFEF76F
:1022300055FBA168411A7D2000018142B5D9FF23D9
:1022400000214033EF220846009500F0B1F9032049
:1022500095E0FEF743FBA060A7E7FEF73FFBA16810
:10226000411A7D20000181429FD96078401CC0B294
:102270006070022802D9042020706570FF230021BD
:102280004033EF220846009500F092F9E1E7A0788C
:10229000030001F077FC05040723252711001F2008
:1022A000C00201E03F2040010090FF2300214133A4
:1022B000F022084600F07CF9FEF710FBA168411AF5
:1022C0007D20C0008142C7D9A078401CC0B2A07058
:1022D0000428BED904202070A570BAE71F20E3E7C8
:1022E0004348E1E70095E0E7FEF70CF8FEF7F6FA61
:1022F000A168401AB042AFD9FF2300214133F02238
:102300000846009500F054F9052038E0FEF718F86B
:10231000FEF7E4FAA168401AB0429DD9FF230021DC
:102320004133F0220846009500F042F90720207062
:10233000FEF7D4FAA0604BE01F20C0026946A1C19D
:102340000123E2787821642000F072FDFEF7C6FADE
:10235000A168411A7D20C000814285D9E078401EE5
:102360000006000EE07091D1FF2300214133F022DE
:102370000846009500F01CF9FDF7A6FF0720207025
:1023800067E7FEF735F8002825D0A088184A904264
:102390000AD0E188914207D000920223204A01939B
:1023A0005388128800F096F81D480188A180408863
:1023B000E080B42900D2F8E6FF2123318842FAD325
:1023C000FF2300214033EF220846009500F0F0F88B
:1023D000FDF77AFFE9E60648E080A080E5E6000028
:1023E00000040050B80B0000000000204C3D000825
:1023F000FFFF000053544D333220446973706C6109
:10240000790000004D756C74692D53697A6520540C
:1024100065787400C6D6D1F3D2BABEA7000000001A
:1024200010000020F0B587B00024161A01905D1A44
:10243000601E274604940091002E01DD012108E072
:10244000002E05D076420390002D04DD01200BE024
:1024500000210391F8E7002D05D06D420290AE42B5
:1024600004DD344603E000200290F8E72C4600200B
:102470000590601C069005981DE000980C9A81B2AA
:10248000019880B200F01CF804987F19801904901C
:10249000A04205DD001B04900399019840180190AB
:1024A000A74204DD029900983F1B40180090059850
:1024B000401C80B2059006998842DEDB07B0F0BD73
:1024C00010B514460B460246FFF73AFE204600F0D0
:1024D0003EFD10BDF0B587B00D9C012C21D0A0426F
:1024E00023D3A24221D3A1421FD3A3421DD3151A45
:1024F0005C1A2AB223B2002A00DC524292B2002BAC
:1025000000DC5B429BB2322A0FD8322B0DD800225E
:102510000190501E174604920091002D07DD012105
:102520000EE00C9C0094FFF77DFF07B0F0BD002D7E
:1025300005D06D420390002C04DD01200BE000214A
:102540000391F8E7002C05D064420290A54204DD17
:102550002E4603E000200290F8E726460020059072
:10256000701C069005981EE000980C9B81B20198A3
:102570000D9A80B201F06CFB04983F194019049049
:10258000B04205DD801B049003990198401801902A
:10259000B74204DD00990298BF1B08180090059807
:1025A000401C80B2059006998842DDDDBDE7000041
:1025B000FFB5FFB084B0294D8C9E1446074628789D
:1025C0000028FCD03846869B8499FFF7B9FD849992
:1025D0008698E41B401A401C641C4443F0B2370A3E
:1025E00001908020052636070090002240213046C9
:1025F000FEF76DF9012208213046FEF768F91DE06B
:102600000098844202D90646002002E026460020B7
:1026100006E0420002A98F545118019B4B70401CE8
:10262000B042F6D328780028FCD00020287070042F
:10263000020C02A90A48FFF759FAA41B002CDFD1AB
:1026400000E000BF28780028FBD0052001224021AF
:102650000007FEF73CF97FB008B0F0BD0C00002089
:10266000B4000020F0B587B014216846FDF78DFD59
:102670001948416B012529434163416B294005916C
:10268000416B022421434163406B002620400590AA
:1026900048206A46039461C205273F0769463846C9
:1026A000FEF75EF803940D486A4661C20C4C694619
:1026B0002046FEF755F8012251032046FEF707F9A0
:1026C000012208213846FEF702F90122402138464E
:1026D000FEF7FDF807B0F0BD001002400220000038
:1026E0000004005070B5FFF7BDFF0124844D640362
:1026F000002221462846FEF7EAF8642001F081FA1C
:10270000012221462846FEF7E2F8642001F079FA1A
:10271000112000F025FC782001F073FACF2000F0A2
:102720001FFC002000F02EFCD92000F02BFC3020F4
:1027300000F028FCED2000F013FC642000F022FCE7
:10274000032000F01FFC122000F01CFC812000F090
:1027500019FCE82000F004FC852000F013FC102098
:1027600000F010FC782000F00DFCCB2000F0F8FB0E
:10277000392000F007FC2C2000F004FC002000F0C1
:1027800001FC342000F0FEFB022000F0FBFBF720F0
:1027900000F0E6FB202000F0F5FBEA2000F0E0FB73
:1027A000002000F0EFFB002000F0ECFBC02000F068
:1027B000D7FB212000F0E6FBC12000F0D1FB122066
:1027C00000F0E0FBC52000F0CBFB322000F0DAFB8C
:1027D0003C2000F0D7FBC72000F0C2FBC12000F076
:1027E000D1FB362000F0BCFB082000F0CBFB3A20E8
:1027F00000F0B6FB552000F0C5FBB12000F0B0FBA7
:10280000002000F0BFFB182000F0BCFBB62000F059
:10281000A7FB0A2000F0B6FBA22000F0B3FBF220D9
:1028200000F09EFB002000F0ADFB262000F098FB9E
:10283000012000F0A7FBE02000F092FB0F2000F049
:10284000A1FB202000F09EFB1E2000F09BFB092036
:1028500000F098FB122000F095FB0B2000F092FB9B
:10286000502000F08FFBBA2000F08CFB442000F0D9
:1028700089FB092000F086FB142000F083FB052073
:1028800000F080FB232000F07DFB212000F07AFB8C
:10289000002000F077FBE12000F062FB002000F058
:1028A00071FB192000F06EFB192000F06BFB00207B
:1028B00000F068FB122000F065FB072000F062FBCF
:1028C0002D2000F05FFB282000F05CFB3F2000F093
:1028D00059FB022000F056FB0A2000F053FB0820B1
:1028E00000F050FB252000F04DFB2D2000F04AFBAE
:1028F0000F2000F047FB292000F032FB70BD0000E4
:1029000000040050FFB5044685B0002000900F98E9
:1029100001944708F808790700D0012140180F9961
:10292000203A48430390D0B2079006984018401EC2
:1029300083B2E019401E82B220460699FFF700FCE0
:1029400000254FE00F980C2825D0102828D01828F3
:102950002AD0202849D10798264980014018405D97
:10296000002602901098002823D001200299B04040
:10297000084204D02046089A0699FFF7A1FD641C7E
:102980000198A4B2201AB84226D10698019C401C96
:1029900080B2069024E007980C2148431649DDE7F1
:1029A000079816490001D9E7079830214843144990
:1029B000D4E701200299B040084201D0089800E015
:1029C0000E9800F0C4FA00983946401CC0B200903E
:1029D000FDF78EFB00290AD0761CF6B2082EC1D373
:1029E0006D1CADB203988542ACD309B0F0BD002098
:1029F0000090F5E708F60108D4D9010848DE01087F
:102A000038E40108FFB583B0154607460E9E0D9CBD
:102A100013E00C2C16D0102C1ED0182C26D0202CF5
:102A20000ED10C98694651C12A463846069B049936
:102A300000F088F9381987B2AD1C28780028E8D151
:102A400007B0F0BD0C98694651C12A463846069B2E
:102A5000049900F015F8EDE70C98694651C12A4633
:102A60003846069B049900F081F8E3E70C98694624
:102A700051C12A463846069B049900F0EDF8D9E783
:102A8000FFB5054689B00020069013980795C10848
:102A9000400700D0012008181399484304900520EE
:102AA0000024039020461A2148432F490B9A0B5CBF
:102AB000127893424ED14018029041780B9840789A
:102AC000814247D113990A984018401E83B2681872
:102AD000401E82B228460A99FFF732FB002736E0F3
:102AE00002980026C0190890149800280898817848
:102AF00015D00120B040014204D028460C9A0A9912
:102B0000FFF7DEFC6D1C0798ADB2291A13988142BD
:102B100017D10A98079D401C80B20A9015E0012049
:102B2000B040014201D00C9800E0129800F00FFA7A
:102B300006981399401CC0B20690FDF7D9FA0029F7
:102B40000FD0761CF6B2082ECED37F1CFFB20498AD
:102B50008742C5D3641C0398A4B28442A2D30DB0AB
:102B6000F0BD00200690F0E7C80D0208FFB505464D
:102B700089B00020069013980795C108400700D03F
:102B8000012008181399484304900520002403905D
:102B90002046222148432F490B9A0B5C127893421E
:102BA0004ED14018029041780B984078814247D12D
:102BB00013990A984018401E83B26818401E82B2CA
:102BC00028460A99FFF7BCFA002736E0029800264B
:102BD000C0190890149800280898817815D0012011
:102BE000B040014204D028460C9A0A99FFF768FCCD
:102BF0006D1C0798ADB2291A1398814217D10A9813
:102C0000079D401C80B20A9015E00120B0400142AF
:102C100001D00C9800E0129800F099F906981399E9
:102C2000401CC0B20690FDF763FA00290FD0761C55
:102C3000F6B2082ECED37F1CFFB204988742C5D3CC
:102C4000641C0398A4B28442A2D30DB0F0BD00204E
:102C50000690F0E74A0E0208FFB5054689B000204D
:102C6000069013980795C108400700D00120081866
:102C700013994843049005200024039020464A21DC
:102C800048432F490B9A0B5C127893424ED140185F
:102C9000029041780B984078814247D113990A9865
:102CA0004018401E83B26818401E82B228460A9916
:102CB000FFF746FA002736E002980026C019089070
:102CC000149800280898817815D00120B04001425E
:102CD00004D028460C9A0A99FFF7F2FB6D1C07985E
:102CE000ADB2291A1398814217D10A98079D401C4A
:102CF00080B20A9015E00120B040014201D00C984A
:102D000000E0129800F023F906981399401CC0B215
:102D10000690FDF7EDF900290FD0761CF6B2082ECB
:102D2000CED37F1CFFB204988742C5D3641C03989E
:102D3000A4B28442A2D30DB0F0BD00200690F0E70B
:102D4000F40E0208FFB5054689B0002006901398DE
:102D50000795C108400700D001200818139948437F
:102D600004900420002403902046822148432F49E8
:102D70000B9A0B5C127893424ED140180290417826
:102D80000B984078814247D113990A984018401E09
:102D900083B26818401E82B228460A99FFF7D0F91C
:102DA000002736E002980026C019089014980028E1
:102DB0000898817815D00120B040014204D02846FF
:102DC0000C9A0A99FFF77CFB6D1C0798ADB2291A83
:102DD0001398814217D10A98079D401C80B20A902F
:102DE00015E00120B040014201D00C9800E012989B
:102DF00000F0ADF806981399401CC0B20690FDF79C
:102E000077F900290FD0761CF6B2082ECED37F1C9E
:102E1000FFB204988742C5D3641C0398A4B28442CD
:102E2000A2D30DB0F0BD00200690F0E766100208B6
:102E3000FFB585B00026109F1D46780834460390E4
:102E400034E0281B401EC1B20A2000F075FF014685
:102E50000798FDF74DF90A21FDF74AF9002E05D133
:102E6000681E844202DA00290FD0012600220F9842
:102E7000303102920090CAB203982146414305982E
:102E80000197081880B20E9B0BE000200F9902906A
:102E9000009103980599604340180E9B019780B2FA
:102EA00020220699FFF72EFD641CE4B2AC42C8D381
:102EB00009B0F0BDF8B51D46144602194B1992B27F
:102EC0009BB2FFF73DF96C436500052400262407FB
:102ED000324640212046FDF7FAFC01220821204617
:102EE000FDF7F5FCFF2701370DE03C46A54200D871
:102EF0002C46069800238119A2B2DB430648FEF750
:102F000045FD36192D1B002DEFD105200122402152
:102F10000007FDF7DCFCF8BDB4000020FFB583B06E
:102F20000D9F144605467E080CE00C990E980197FB
:102F3000009102902846069B0499FFF7E3FC701964
:102F400085B2641C2278002AEFD107B0F0BD10B51D
:102F50000446000A00F016F8E0B200F013F810BDC5
:102F600070B5052405462407002208212046FDF7F8
:102F7000AEFC284600F006F8012208212046FDF7A5
:102F8000A6FC70BD31B5052424070022402120464F
:102F9000FDF79DFC7D23DB00012269460448FEF716
:102FA000F5FC012240212046FDF791FC38BD0000D0
:102FB000B400002008B50848816B012211438163E9
:102FC000806B10400022009011460920FDF7EAFDB9
:102FD0000920FDF7DBFD08BD00100240F0B587B009
:102FE00014216846FDF7D1F82A48426B04210A43B0
:102FF0004263426B0A400592426B20210A434263BE
:10300000426B0A400592416B012421434163416BAD
:1030100021400591426B02210A434263426B0A4000
:103020000592426B08210A434263406B1A4F0840E5
:103030000590012210213846FDF749FC0122960235
:1030400031461648FDF743FC10200025694631C182
:10305000694638460395FDF783FB60020090212006
:1030600000040190694602940D48FDF779FB029532
:1030700069460A48009603950194FDF771FB00220A
:1030800011460720FDF78EFD0720FDF77FFD07B0F5
:10309000F0BD000000100240000C0050000800507D
:1030A0000004005010B513481149016012494160F5
:1030B000002181600161416181610122C161C260C1
:1030C0000162FDF75BFC002801D0FDF764F90021E7
:1030D0000848FDF709FC002801D0FDF75CF9002144
:1030E0000448FDF726FC002801D0FDF754F910BD77
:1030F00000540040340000206621C10010B586B0A5
:1031000014216846FDF741F800241C4805941A492B
:10311000846001607F21C16044618461FF21C461DA
:1031200001610121890744620162FEF7CFF900289D
:1031300001D0FDF730F96846047044708470019442
:103140000394012269460D480494FEF791FA002881
:1031500001D0FDF720F9012069460875487588758A
:10316000CC75024605A90548FEF734FA002801D0BF
:10317000FDF711F906B010BD0028004088000020BE
:1031800010B511480F490160FF210531416001214F
:10319000C903816007210902C16000210161416109
:1031A000C161012201625202416282618162072291
:1031B0000163C2624163FEF7E7FA002801D0FDF720
:1031C000EAF810BD00300140B400002010B51148ED
:1031D0000F490160FF210531416007221202C260E0
:1031E0000021816002220261012242615202826159
:1031F000016238224162C261816207220163C262B8
:103200004163FEF7C1FA002801D0FDF7C4F810BDF4
:10321000003800401801002010B518481649016018
:10322000E1214902416000218160C1600161816149
:10323000C16101620C22416242618162FEF76FFD51
:10324000002801D0FDF7A7F800210C48FEF744FD47
:10325000002801D0FDF79FF800210848FEF718FD6F
:10326000002801D0FDF797F80448FEF7F3FC00288A
:1032700001D0FDF790F810BD00480040DC010020AF
:10328000FEE770470022014602E00A39C9B2521C2B
:103290000A29FAD21007000E08437047F8B5044611
:1032A00000680025C168490618D4C168802211430E
:1032B000C160FDF713FB27460646203708E0FDF7FF
:1032C0000DFB811B7D20C000814201D903257D7249
:1032D0002068C068400601D4032DF0D12846F8BD0F
:1032E000F8B5124C0026E16880229143E160A169A3
:1032F000054689062035002907DBFEF719FA002864
:1033000011D00320687206460DE0A1692027B94359
:10331000A161FEF70DFA002802D00320687206466C
:10332000A0693843A0613046F8BD00000028004085
:1033300010B5806A01684A68920892004A60016E7E
:1033400010221143016601225D210A54FEF70AFA98
:1033500010BD10B5806AFEF759FC10BD38B50546A2
:10336000846AFDF7BBFA024628680068800625D407
:10337000206841682025A9434160206841680223F4
:10338000994341606421204600F01CF8002802D0D7
:10339000206E28432066A0680021002803D1206801
:1033A000C26880680090E18701215D200155206E90
:1033B000002803D02046FEF7D5F938BD2046FEF799
:1033C00019FC38BDF8B50F460B461546009203218F
:1033D00004460022C90200F01BF82026002812D162
:1033E0003B46002280212046009500F07DF8002811
:1033F00009D103213B46002249022046009500F0F6
:1034000007F8002803D0206E304320660320F8BD63
:10341000FFB585B00E460446002069460E9D17464E
:103420000871FDF75BFA411B0898451AFDF756FA3B
:103430000390206823210C3002902A4800684843FA
:10344000000D684346E003204002864206D1002F6B
:1034500004D1029801786846017100790898401CEF
:1034600039D0FDF73BFA0399401AA84205D2002D46
:1034700003D0009800282BD02BE020684168E02280
:10348000914341606068C11FFD390CD10121A068E2
:10349000C903884202D04911884204D120680168DA
:1034A0004022914301600120A16A4003814207D17B
:1034B00021680A6882430A6021680A6802430A6038
:1034C00001204034607700202077032009B0F0BD50
:1034D0000025401E0090206880683040B842B2D17C
:1034E0000020F3E730000020FFB581B01E460446FF
:1034F0000A9DFDF7F3F9401B351AFDF7EFF9074672
:10350000264800684001000D684339E0701C38D03F
:10351000FDF7E4F9C01BA84205D2002D03D00098A6
:1035200000282BD02BE020684168E02291434160C5
:103530006068C11FFD390CD10121A068C903884210
:1035400002D04911884204D1206801684022914389
:1035500001600120A16A4003814207D121680A6805
:1035600082430A6021680A6802430A6001204034ED
:10357000607700202077032005B0F0BD0025401EB5
:103580000090206881680298884305D00021039844
:103590008142BBD10020EFE70121F8E73000002095
:1035A000704710B5FDF798FA10BD000030B593B024
:1035B0003C216846FCF7E9FD002401200F9410949B
:1035C000119440021294FDF7F1FAFDF715FB17482C
:1035D000C16918229143C1610520009001200004B7
:1035E0000190012002900320099010200B904003CD
:1035F00002250C90089500020D9000010E900A948F
:103600006846FDF747FD002801D072B6FEE70720A7
:103610000F9011940221109512940FA8FDF734FC1D
:10362000002801D072B6FEE713B030BD4010024052
:1036300070470000F8B50446416E4034002915D0AB
:1036400000688168806809014D0F0A4E400F3746B7
:10365000315C083F385CC000FCF74AFD6085785D4E
:10366000715DC000FCF744FD2085F8BD0120608538
:10367000FAE700009C12020810B5018D090707D572
:1036800001684A680123DB039A43836B1A434A604B
:10369000018DC90707D001684A6801235B049A437A
:1036A000C36A1A434A60018D890707D501684A68D1
:1036B00001231B049A43036B1A434A60018D490797
:1036C00007D501684A6801239B049A43436B1A4358
:1036D0004A60018DC90607D50268916801231B0362
:1036E0009943C36B19439160018D890607D5016821
:1036F0008A6801235B039A43036C1A438A60018D35
:10370000490612D503685A6801210905446C8A43A9
:1037100022435A60426C8A4207D1026851680323EF
:103720005B059943836C19435160018D090607D5E8
:1037300001684A680123DB04C06C9A4302434A6073
:1037400010BD0000FEB505460026803504462E61FA
:10375000FDF7C4F8019020680068202700070028C2
:1037600017DA25480090002239042046019B00F01A
:10377000C1F900280DD0EFF31080012181F31088EA
:1037800021680A6880239A430A6080F31088AF603A
:1037900028E020680068400727D5174800900121DD
:1037A000002289052046019B00F0A4F900281CD0C6
:1037B000EFF31080012181F3108821680A68FF234C
:1037C00021339A430A6080F31088EFF310800121BF
:1037D00081F3108821688A68520852008A6080F359
:1037E0001088EF602E710320FEBDAF60EF60E666CB
:1037F00026672E710020FEBDFFFFFF0110B5EFF31D
:103800001081012282F3108802681368FF2421349A
:10381000A343136081F31088EFF31081012282F338
:103820001088026893680D4C2340936081F31088E0
:10383000C16E01290BD1EFF31081012282F31088B0
:10384000026813681024A343136081F310882022B8
:103850008C210A500021C166416710BDFEFFFFEFB9
:10386000F8B50446016880682569E76928436569F9
:1038700000263D432843904A904B0D68904F3D40B1
:1038800005430D602168486803252D03A843E568BA
:10389000284348602168A069914203D0994201D031
:1038A000256A28438D68874F3D4005438D60206819
:1038B000C16A656A090909012943C162824D21680B
:1038C0008248A9420AD140698007800F4ED0012862
:1038D0005DD002284AD0032847D15AE07C4DA94246
:1038E0000AD140690C25284040D004283ED0082841
:1038F0004BD00C2839D14CE0764DA9420AD1406911
:103900003025284032D0102841D020283DD0302802
:103910002BD13EE0704DA94214D0704DA94211D078
:103920006F4DA9420ED091420ED14569032080020D
:10393000054007D0012080022D1A28D02D1A24D04E
:10394000281A10E0002011E099420ED140690325A9
:103950002D0228400AD0FF38401E18D0FF38401EE4
:1039600013D0FF380138002813D010205D4D5E4F72
:10397000914201D0994240D100280CD0022814D0A5
:1039800004280BD0082837D10DE00220EEE70420F0
:10399000ECE70820EAE7FDF723FB01E0FDF734FB45
:1039A000050002D17EE00125ED03606A4000395A2E
:1039B00028460091FCF79CFB6768790079188142E2
:1039C0006BD83903814268D3002328461946009AF0
:1039D000FCF7A4FB020E0902030278081143181831
:1039E000002251413A460023FCF798FB03210902CB
:1039F0003E4A411A914253D94FE00121E269C9037D
:103A00008A4228D1002806D002280DD0042805D0EB
:103A1000082842D107E0FDF7E3FA01E0FDF7F4FAE8
:103A2000050001D13EE00D46606A4000395A284643
:103A3000FCF75EFB616840004A088018FCF758FB01
:103A400001462B4A1039914227D8511C01400007EA
:103A5000400F084324E0002806D002280DD0042897
:103A600005D0082819D107E0FDF7BAFA01E0FDF703
:103A7000CBFA050001D115E00D46606A4000395AC5
:103A80002846FCF735FB61684A088018FCF730FBD4
:103A90000146174A1039914201D9012602E080B24D
:103AA0002168C86020460121403041850185002001
:103AB0006067A0673046F8BD008000400084004089
:103AC000F369FFCFFFF4FF110038014040100240BE
:103AD0000044004000480040004C004000500040BE
:103AE000003C01400024F4007C120208FFFC0F009F
:103AF000EFFF0000FFB581B005460E460446803555
:103B00000A9F32E0781C30D0FCF7E8FE0499401A96
:103B1000B84218D8002F16D020680168490724D56C
:103B2000802E22D0402E20D0C169C94309070CD471
:103B3000082606622046FFF761FE2E6100202871EC
:103B4000012005B0F0BD0320FBE7C069C0430005BC
:103B50000BD401202168C00208622046FFF74EFE08
:103B60002020286100202871EDE72068C1693046D7
:103B7000884305D0002103988142C3D00020E0E7AC
:103B80000121F8E730B47446641E2578641CAB420A
:103B900000D21D46635D5B00E31830BC184700008F
:103BA0008307FF22DB0E9A408907090E99400028FF
:103BB00008DB830809489B001B18186890430843DA
:103BC000186070470007000F0838830804489B00FE
:103BD0001B18D86990430843D861704700E400E09F
:103BE00000ED00E002E008C8121F08C1002AFAD167
:103BF00070477047002001E001C1121F002AFBD16D
:103C0000704770B50546FCF769FE0446002002E0E7
:103C1000FCF764FE001BA842FAD370BD002209E045
:103C2000002100BF00BF00BF00BF491CC9B210295E
:103C3000F7D3521C8242F3D3704708B5002A06D04E
:103C40008218521E009392B20B46FEF7EBFB08BDA2
:103C5000FFB5B52080005043870A85B01046504319
:103C6000510840180290144650040097020C059821
:103C70000126001B80B2089B0699FFF7DEFF009F1C
:103C800001257F1C3DE02046604381190298814256
:103C90001CD90098844218D96800801E82B2039013
:103CA0000698089B001981B20598401B401C0190A2
:103CB00080B2FFF7C2FF0398089B82B20698001BF0
:103CC00081B2019880B2FFF7B8FF641E600082B233
:103CD00003900698089B401981B20598001B01903B
:103CE00080B2FFF7AAFF0398089B82B20698401B98
:103CF00081B2019880B2FFF7A0FF680086196D1CA1
:103D0000761CBD42BFD309B0F0BD10B5FCF7ECFE88
:103D1000FFF74CFCFFF762F9FFF74CF9FFF7EEF9FC
:103D2000FFF77AFAFFF7BEF9FFF750FAFFF728FA24
:103D3000FEF722FA002010BD0246012000E05043A9
:103D40000B46491EC9B2002BF9D17047101000F084
:103D500000DC011BFFFFFFFFFFFFFFFFFFFFFFFF77
:103D6000FFFFFFFFFFFFFFFFFFFFFFFFFFFFFFFF63
:103D7000FFFFFFFFFFFFFFFFFFFFFFFFFFFFFFFF53
:103D8000FFFFFFFFFFFFFFFFFFFFFFFFFFFFFFFF43
:103D9000FFFFFFFFFFFFFFFFFFFFFFFFFFFFFFFF33
:1052D000FFFFFFFFFFFFFFFFFFFFFFFFFFFF08854F
:1052E0000067006700670067006700670067006786
:1052F0000067006700670067006700670067006776
:105300000067006700670067006700670067006765
:105310000067006700670067006700670067006755
:105320000067006700670067006700670067006745
:105330000067006700670067006700670067006735
:105340000067006700670067006700670067006725
:105350000067006700670067006700670067006715
:105360000067006700670067006700670067006705
:1053700000670067006700670067006700670067F5
:1053800000670067006700670067006700670067E5
:1053900000670067006700670067006700670067D5
:1053A00000670067006700670067006700670067C5
:1053B000006700670067006700670067FFFFFFFF87
:1053C000FFFFFFFFFFFFFFFFFFFFFFFFFFFFFFFFED
:1053D000FFFFFFFFFFFFFFFFFFFFFFFFFFFFFFFFDD
:1053E000FFFFFFFFFFFFFFFFFFFFFFFFFFFFFFFFCD
:1053F000FFFFFFFFFFFFFFFFFFFFFFFFFFFFFFFFBD
:10540000FFFFFFFFFFFFFFFFFFFFFFFFFFFFFFFFAC
:10541000FFFFFFFFFFFFFFFFFFFFFFFFFFFFFFFF9C
:10542000FFFFFFFFFFFFFFFFFFFFFFFFFFFFFFFF8C
:10543000FFFFFFFFFFFFFFFFFFFFFFFFFFFFFFFF7C
:10544000FFFFFFFFFFFFFFFFFFFFFFFFFFFFFFFF6C
:10545000FFFFFFFFFFFFFFFFFFFFFFFFFFFFFFFF5C
:10546000FFFFFFFFFFFFFFFFFFFFFFFFFFFFFFFF4C
:10547000FFFFFFFFFFFFFFFFFFFFFFFFFFFFFFFF3C
:10548000FFFFFFFFFFFFFFFFFFFFFFFFFFFFFFFF2C
:10549000FFFFFFFFFFFFFFFFFFFFFFFFFFFFFFFF1C
:1054A000FFFFFFFFFFFFFFFFFFFFFFFFFFFFFFFF0C
:1054B000FFFFFFFFFFFFFFFFFFFFFFFFFFFF006694
:1054C00000670067006700670067006700670067A4
:1054D0000067006700670067006700670067006794
:1054E0000067006700670067006700670067006784
:1054F0000067006700670067006700670067006774
:105500000067006700670067006700670067006763
:105510000067006700670067006700670067006753
:105520000067006700670067006700670067006743
:105530000067006700670067006700670067006733
:105540000067006700670067006700670067006723
:105550000067006700670067006700670067006713
:105560000067006700670067006700670067006703
:1055700000670067006700670067006700670067F3
:1055800000670067006700670067006700670067E3
:10559000006700670067006700670067FFFFFFFFA5
:1055A000FFFFFFFFFFFFFFFFFFFFFFFFFFFFFFFF0B
:1055B000FFFFFFFFFFFFFFFFFFFFFFFFFFFFFFFFFB
:1055C000FFFFFFFFFFFFFFFFFFFFFFFFFFFFFFFFEB
:1055D000FFFFFFFFFFFFFFFFFFFFFFFFFFFFFFFFDB
:1055E000FFFFFFFFFFFFFFFFFFFFFFFFFFFFFFFFCB
:1055F000FFFFFFFFFFFFFFFFFFFFFFFFFFFFFFFFBB
:10560000FFFFFFFFFFFFFFFFFFFFFFFFFFFFFFFFAA
:10561000FFFFFFFFFFFFFFFFFFFFFFFFFFFFFFFF9A
:10562000FFFFFFFFFFFFFFFFFFFFFFFFFFFFFFFF8A
:10563000FFFFFFFFFFFFFFFFFFFFFFFFFFFFFFFF7A
:10564000FFFFFFFFFFFFFFFFFFFFFFFFFFFFFFFF6A
:10565000FFFFFFFFFFFFFFFFFFFFFFFFFFFFFFFF5A
:10566000FFFFFFFFFFFFFFFFFFFFFFFFFFFFFFFF4A
:10567000FFFFFFFFFFFFFFFFFFFFFFFFFFFFFFFF3A
:10568000FFFFFFFFFFFFFFFFFFFFFFFFFFFFFFFF2A
:10569000FFFFFFFFFFFFFFFFFFFFFFFFFFFF0066B2
:1056A00000670067006700670067006700670067C2
:1056B00000670067006700670067006700670067B2
:1056C00000670067006700670067006700670067A2
:1056D0000067006700670067006700670067006792
:1056E0000067006700670067006700670067006782
:1056F0000067006700670067006700670067006772
:105700000067006700670067006700670067006761
:105710000067006700670067006700670067006751
:105720000067006700670067006700670067006741
:105730000067006700670067006700670067006731
:105740000067006700670067006700670067006721
:105750000067006700670067006700670067006711
:105760000067006700670067006700670067006701
:10577000006700670067006700670067FFFFFFFFC3
:10578000FFFFFFFFFFFFFFFFFFFFFFFFFFFFFFFF29
:10579000FFFFFFFFFFFFFFFFFFFFFFFFFFFFFFFF19
:1057A000FFFFFFFFFFFFFFFFFFFFFFFFFFFFFFFF09
:1057B000FFFFFFFFFFFFFFFFFFFFFFFFFFFFFFFFF9
:1057C000FFFFFFFFFFFFFFFFFFFFFFFFFFFFFFFFE9
:1057D000FFFFFFFFFFFFFFFFFFFFFFFFFFFFFFFFD9
:1057E000FFFFFFFFFFFFFFFFFFFFFFFFFFFFFFFFC9
:1057F000FFFFFFFFFFFFFFFFFFFFFFFFFFFFFFFFB9
:10580000FFFFFFFFFFFFFFFFFFFFFFFFFFFFFFFFA8
:10581000FFFFFFFFFFFFFFFFFFFFFFFFFFFFFFFF98
:10582000FFFFFFFFFFFFFFFFFFFFFFFFFFFFFFFF88
:10583000FFFFFFFFFFFFFFFFFFFFFFFFFFFFFFFF78
:10584000FFFFFFFFFFFFFFFFFFFFFFFFFFFFFFFF68
:10585000FFFFFFFFFFFFFFFFFFFFFFFFFFFFFFFF58
:10586000FFFFFFFFFFFFFFFFFFFFFFFFFFFFFFFF48
:10587000FFFFFFFFFFFFFFFFFFFFFFFFFFFF0066D0
:1058800000670067004700470047004700470047A0
:1058900000470047004700470047004700470047D0
:1058A00000470047004700470047004700470047C0
:1058B00000470047004700470047004700470047B0
:1058C00000470047004700470047004700470047A0
:1058D0000047004700470047004700470047004790
:1058E0000047004700470047004700470047004780
:1058F0000047004700470047004700470047004770
:10590000004700470047004700470047004700475F
:10591000004700470047004700470047004700474F
:10592000004700470047004700470047004700473F
:10593000004700470047004700470047004700472F
:10594000004700470047004700470047004700471F
:10595000004700670088006700670067FFFFFFFFE0
:10596000FFFFFFFFFFFFFFFFFFFFFFFFFFFFFFFF47
:10597000FFFFFFFFFFFFFFFFFFFFFFFFFFFFFFFF37
:10598000FFFFFFFFFFFFFFFFFFFFFFFFFFFFFFFF27
:10599000FFFFFFFFFFFFFFFFFFFFFFFFFFFFFFFF17
:1059A000FFFFFFFFFFFFFFFFFFFFFFFFFFFFFFFF07
:1059B000FFFFFFFFFFFFFFFFFFFFFFFFFFFFFFFFF7
:1059C000FFFFFFFFFFFFFFFFFFFFFFFFFFFFFFFFE7
:1059D000FFFFFFFFFFFFFFFFFFFFFFFFFFFFFFFFD7
:1059E000FFFFFFFFFFFFFFFFFFFFFFFFFFFFFFFFC7
:1059F000FFFFFFFFFFFFFFFFFFFFFFFFFFFFFFFFB7
:105A0000FFFFFFFFFFFFFFFFFFFFFFFFFFFFFFFFA6
:105A1000FFFFFFFFFFFFFFFFFFFFFFFFFFFFFFFF96
:105A2000FFFFFFFFFFFFFFFFFFFFFFFFFFFFFFFF86
:105A3000FFFFFFFFFFFFFFFFFFFFFFFFFFFFFFFF76
:105A4000FFFFFFFFFFFFFFFFFFFFFFFFFFFFFFFF66
:105A5000FFFFFFFFFFFFFFFFFFFFFFFFFFFF0066EE
:105A6000006700670067FFFFFFFFFFFFFFFFFFFF0B
:105A7000FFFFFFFFFFFFFFFFFFFFFFFFFFFFFFFF36
:105A8000FFFFFFFFFFFFFFFFFFFFFFFFFFFFFFFF26
:105A9000FFFFFFFFFFFFFFFFFFFFFFFFFFFFFFFF16
:105AA000FFFFFFFFFFFFFFFFFFFFFFFFFFFFFFFF06
:105AB000FFFFFFFFFFFFFFFFFFFFFFFFFFFFFFFFF6
:105AC000FFFFFFFFFFFFFFFFFFFFFFFFFFFFFFFFE6
:105AD000FFFFFFFFFFFFFFFFFFFFFFFFFFFFFFFFD6
:105AE000FFFFFFFFFFFFFFFFFFFFFFFFFFFFFFFFC6
:105AF000FFFFFFFFFFFFFFFFFFFFFFFFFFFFFFFFB6
:105B0000FFFFFFFFFFFFFFFFFFFFFFFFFFFFFFFFA5
:105B1000FFFFFFFFFFFFFFFFFFFFFFFFFFFFFFFF95
:105B2000FFFFFFFFFFFFFFFFFFFFFFFFFFFFFFFF85
:105B3000FFFFFFFF0065006700670067FFFFFFFFD3
:105B4000FFFFFFFFFFFFFFFFFFFFFFFFFFFFFFFF65
:105B5000FFFFFFFFFFFFFFFFFFFFFFFFFFFFFFFF55
:105B6000FFFFFFFFFFFFFFFFFFFFFFFFFFFFFFFF45
:105B7000FFFFFFFFFFFFFFFFFFFFFFFFFFFFFFFF35
:105B8000FFFFFFFFFFFFFFFFFFFFFFFFFFFFFFFF25
:105B9000FFFFFFFFFFFFFFFFFFFFFFFFFFFFFFFF15
:105BA000FFFFFFFFFFFFFFFFFFFFFFFFFFFFFFFF05
:105BB000FFFFFFFFFFFFFFFFFFFFFFFFFFFFFFFFF5
:105BC000FFFFFFFFFFFFFFFFFFFFFFFFFFFFFFFFE5
:105BD000FFFFFFFFFFFFFFFFFFFFFFFFFFFFFFFFD5
:105BE000FFFFFFFFFFFFFFFFFFFFFFFFFFFFFFFFC5
:105BF000FFFFFFFFFFFFFFFFFFFFFFFFFFFFFFFFB5
:105C0000FFFFFFFFFFFFFFFFFFFFFFFFFFFFFFFFA4
:105C1000FFFFFFFFFFFFFFFFFFFFFFFFFFFFFFFF94
:105C2000FFFFFFFFFFFFFFFFFFFFFFFFFFFFFFFF84
:105C3000FFFFFFFFFFFFFFFFFFFFFFFFFFFF00660C
:105C4000006700670067FFFFFFFFFFFFFFFFFFFF29
:105C5000FFFFFFFFFFFFFFFFFFFFFFFFFFFFFFFF54
:105C6000FFFFFFFFFFFFFFFFFFFFFFFFFFFFFFFF44
:105C7000FFFFFFFFFFFFFFFFFFFFFFFFFFFFFFFF34
:105C8000FFFFFFFFFFFFFFFFFFFFFFFFFFFFFFFF24
:105C9000FFFFFFFFFFFFFFFFFFFFFFFFFFFFFFFF14
:105CA000FFFFFFFFFFFFFFFFFFFFFFFFFFFFFFFF04
:105CB000FFFFFFFFFFFFFFFFFFFFFFFFFFFFFFFFF4
:105CC000FFFFFFFFFFFFFFFFFFFFFFFFFFFFFFFFE4
:105CD000FFFFFFFFFFFFFFFFFFFFFFFFFFFFFFFFD4
:105CE000FFFFFFFFFFFFFFFFFFFFFFFFFFFFFFFFC4
:105CF000FFFFFFFFFFFFFFFFFFFFFFFFFFFFFFFFB4
:105D0000FFFFFFFFFFFFFFFFFFFFFFFFFFFFFFFFA3
:105D1000FFFFFFFF0065006700670067FFFFFFFFF1
:105D2000FFFFFFFFFFFFFFFFFFFFFFFFFFFFFFFF83
:105D3000FFFFFFFFFFFFFFFFFFFFFFFFFFFFFFFF73
:105D4000FFFFFFFFFFFFFFFFFFFFFFFFFFFFFFFF63
:105D5000FFFFFFFFFFFFFFFFFFFFFFFFFFFFFFFF53
:105D6000FFFFFFFFFFFFFFFFFFFFFFFFFFFFFFFF43
:105D7000FFFFFFFFFFFFFFFFFFFFFFFFFFFFFFFF33
:105D8000FFFFFFFFFFFFFFFFFFFFFFFFFFFFFFFF23
:105D9000FFFFFFFFFFFFFFFFFFFFFFFFFFFFFFFF13
:105DA000FFFFFFFFFFFFFFFFFFFFFFFFFFFFFFFF03
:105DB000FFFFFFFFFFFFFFFFFFFFFFFFFFFFFFFFF3
:105DC000FFFFFFFFFFFFFFFFFFFFFFFFFFFFFFFFE3
:105DD000FFFFFFFFFFFFFFFFFFFFFFFFFFFFFFFFD3
:105DE000FFFFFFFFFFFFFFFFFFFFFFFFFFFFFFFFC3
:105DF000FFFFFFFFFFFFFFFFFFFFFFFFFFFFFFFFB3
:105E0000FFFFFFFFFFFFFFFFFFFFFFFFFFFFFFFFA2
:105E1000FFFFFFFFFFFFFFFFFFFFFFFFFFFF00662A
:105E2000006700670067FFFFFFFFFFFFFFFFFFFF47
:105E3000FFFFFFFFFFFFFFFFFFFFFFFFFFFFFFFF72
:105E4000FFFFFFFFFFFFFFFFFFFFFFFFFFFFFFFF62
:105E5000FFFFFFFFFFFFFFFFFFFFFFFFFFFFFFFF52
:105E6000FFFFFFFFFFFFFFFFFFFFFFFFFFFFFFFF42
:105E7000FFFFFFFFFFFFFFFFFFFFFFFFFFFFFFFF32
:105E8000FFFFFFFFFFFFFFFFFFFFFFFFFFFFFFFF22
:105E9000FFFFFFFFFFFFFFFFFFFFFFFFFFFFFFFF12
:105EA000FFFFFFFFFFFFFFFFFFFFFFFFFFFFFFFF02
:105EB000FFFFFFFFFFFFFFFFFFFFFFFFFFFFFFFFF2
:105EC000FFFFFFFFFFFFFFFFFFFFFFFFFFFFFFFFE2
:105ED000FFFFFFFFFFFFFFFFFFFFFFFFFFFFFFFFD2
:105EE000FFFFFFFFFFFFFFFFFFFFFFFFFFFFFFFFC2
:105EF000FFFFFFFF0065006700670067FFFFFFFF10
:105F0000FFFFFFFFFFFFFFFFFFFFFFFFFFFFFFFFA1
:105F1000FFFFFFFFFFFFFFFFFFFFFFFFFFFFFFFF91
:105F2000FFFFFFFFFFFFFFFFFFFFFFFFFFFFFFFF81
:105F3000FFFFFFFFFFFFFFFFFFFFFFFFFFFFFFFF71
:105F4000FFFFFFFFFFFFFFFFFFFFFFFFFFFFFFFF61
:105F5000FFFFFFFFFFFFFFFFFFFFFFFFFFFFFFFF51
:105F6000FFFFFFFFFFFFFFFFFFFFFFFFFFFFFFFF41
:105F7000FFFFFFFFFFFFFFFFFFFFFFFFFFFFFFFF31
:105F8000FFFFFFFFFFFFFFFFFFFFFFFFFFFFFFFF21
:105F9000FFFFFFFFFFFFFFFFFFFFFFFFFFFFFFFF11
:105FA000FFFFFFFFFFFFFFFFFFFFFFFFFFFFFFFF01
:105FB000FFFFFFFFFFFFFFFFFFFFFFFFFFFFFFFFF1
:105FC000FFFFFFFFFFFFFFFFFFFFFFFFFFFFFFFFE1
:105FD000FFFFFFFFFFFFFFFFFFFFFFFFFFFFFFFFD1
:105FE000FFFFFFFFFFFFFFFFFFFFFFFFFFFFFFFFC1
:105FF000FFFFFFFFFFFFFFFFFFFFFFFFFFFF006649
:10600000006700670067FFFFFFFFFFFFFFFFFFFF65
:10601000FFFFFFFFFFFFFFFFFFFFFFFFFFFFFFFF90
:10602000FFFFFFFFFFFFFFFFFFFFFFFFFFFFFFFF80
:10603000FFFFFFFFFFFFFFFFFFFFFFFFFFFFFFFF70
:10604000FFFFFFFFFFFFFFFFFFFFFFFFFFFFFFFF60
:10605000FFFFFFFFFFFFFFFFFFFFFFFFFFFFFFFF50
:10606000FFFFFFFFFFFFFFFFFFFFFFFFFFFFFFFF40
:10607000FFFFFFFFFFFFFFFFFFFFFFFFFFFFFFFF30
:10608000FFFFFFFFFFFFFFFFFFFFFFFFFFFFFFFF20
:10609000FFFFFFFFFFFFFFFFFFFFFFFFFFFFFFFF10
:1060A000FFFFFFFFFFFFFFFFFFFFFFFFFFFFFFFF00
:1060B000FFFFFFFFFFFFFFFFFFFFFFFFFFFFFFFFF0
:1060C000FFFFFFFFFFFFFFFFFFFFFFFFFFFFFFFFE0
:1060D000FFFFFFFF0065006700670067FFFFFFFF2E
:1060E000FFFFFFFFFFFFFFFFFFFFFFFFFFFFFFFFC0
:1060F000FFFFFFFFFFFFFFFFFFFFFFFFFFFFFFFFB0
:10610000FFFFFFFFFFFFFFFFFFFFFFFFFFFFFFFF9F
:10611000FFFFFFFFFFFFFFFFFFFFFFFFFFFFFFFF8F
:10612000FFFFFFFFFFFFFFFFFFFFFFFFFFFFFFFF7F
:10613000FFFFFFFFFFFFFFFFFFFFFFFFFFFFFFFF6F
:10614000FFFFFFFFFFFFFFFFFFFFFFFFFFFFFFFF5F
:10615000FFFFFFFFFFFFFFFFFFFFFFFFFFFFFFFF4F
:10616000FFFFFFFFFFFFFFFFFFFFFFFFFFFFFFFF3F
:10617000FFFFFFFFFFFFFFFFFFFFFFFFFFFFFFFF2F
:10618000FFFFFFFFFFFFFFFFFFFFFFFFFFFFFFFF1F
:10619000FFFFFFFFFFFFFFFFFFFFFFFFFFFFFFFF0F
:1061A000FFFFFFFFFFFFFFFFFFFFFFFFFFFFFFFFFF
:1061B000FFFFFFFFFFFFFFFFFFFFFFFFFFFFFFFFEF
:1061C000FFFFFFFFFFFFFFFFFFFFFFFFFFFFFFFFDF
:1061D000FFFFFFFFFFFFFFFFFFFFFFFFFFFF006667
:1061E000006700670067FFFFFFFFFFFFFFFFFFFF84
:1061F000FFFFFFFFFFFFFFFFFFFFFFFFFFFFFFFFAF
:10620000FFFFFFFFFFFFFFFFFFFFFFFFFFFFFFFF9E
:10621000FFFFFFFFFFFFFFFFFFFFFFFFFFFFFFFF8E
:10622000FFFFFFFFFFFFFFFFFFFFFFFFFFFFFFFF7E
:10623000FFFFFFFFFFFFFFFFFFFFFFFFFFFFFFFF6E
:10624000FFFFFFFFFFFFFFFFFFFFFFFFFFFFFFFF5E
:10625000FFFFFFFFFFFFFFFFFFFFFFFFFFFFFFFF4E
:10626000FFFFFFFFFFFFFFFFFFFFFFFFFFFFFFFF3E
:10627000FFFFFFFFFFFFFFFFFFFFFFFFFFFFFFFF2E
:10628000FFFFFFFFFFFFFFFFFFFFFFFFFFFFFFFF1E
:10629000FFFFFFFFFFFFFFFFFFFFFFFFFFFFFFFF0E
:1062A000FFFFFFFFFFFFFFFFFFFFFFFFFFFFFFFFFE
:1062B000FFFFFFFF0065006700670067FFFFFFFF4C
:1062C000FFFFFFFFFFFFFFFFFFFFFFFFFFFFFFFFDE
:1062D000FFFFFFFFFFFFFFFFFFFFFFFFFFFFFFFFCE
:1062E000FFFFFFFFFFFFFFFFFFFFFFFFFFFFFFFFBE
:1062F000FFFFFFFFFFFFFFFFFFFFFFFFFFFFFFFFAE
:10630000FFFFFFFFFFFFFFFFFFFFFFFFFFFFFFFF9D
:10631000FFFFFFFFFFFFFFFFFFFFFFFFFFFFFFFF8D
:10632000FFFFFFFFFFFFFFFFFFFFFFFFFFFFFFFF7D
:10633000FFFFFFFFFFFFFFFFFFFFFFFFFFFFFFFF6D
:10634000FFFFFFFFFFFFFFFFFFFFFFFFFFFFFFFF5D
:10635000FFFFFFFFFFFFFFFFFFFFFFFFFFFFFFFF4D
:10636000FFFFFFFFFFFFFFFFFFFFFFFFFFFFFFFF3D
:10637000FFFFFFFFFFFFFFFFFFFFFFFFFFFFFFFF2D
:10638000FFFFFFFFFFFFFFFFFFFFFFFFFFFFFFFF1D
:10639000FFFFFFFFFFFFFFFFFFFFFFFFFFFFFFFF0D
:1063A000FFFFFFFFFFFFFFFFFFFFFFFFFFFFFFFFFD
:1063B000FFFFFFFFFFFFFFFFFFFFFFFFFFFF006685
:1063C000006700670067FFFFFFFFFFFFFFFFFFFFA2
:1063D000FFFFFFFFFFFFFFFFFFFFFFFFFFFFFFFFCD
:1063E000FFFFFFFFFFFFFFFFFFFFFFFFFFFFFFFFBD
:1063F000FFFFFFFFFFFFFFFFFFFFFFFFFFFFFFFFAD
:10640000FFFFFFFFFFFFFFFFFFFFFFFFFFFFFFFF9C
:10641000FFFFFFFFFFFFFFFFFFFFFFFFFFFFFFFF8C
:10642000FFFFFFFFFFFFFFFFFFFFFFFFFFFFFFFF7C
:10643000FFFFFFFFFFFFFFFFFFFFFFFFFFFFFFFF6C
:10644000FFFFFFFFFFFFFFFFFFFFFFFFFFFFFFFF5C
:10645000FFFFFFFFFFFFFFFFFFFFFFFFFFFFFFFF4C
:10646000FFFFFFFFFFFFFFFFFFFFFFFFFFFFFFFF3C
:10647000FFFFFFFFFFFFFFFFFFFFFFFFFFFFFFFF2C
:10648000FFFFFFFFFFFFFFFFFFFFFFFFFFFFFFFF1C
:10649000FFFFFFFF0065006700670067FFFFFFFF6A
:1064A000FFFFFFFFFFFFFFFFFFFFFFFFFFFFFFFFFC
:1064B000FFFFFFFFFFFFFFFFFFFFFFFFFFFFFFFFEC
:1064C000FFFFFFFFFFFFFFFFFFFFFFFFFFFFFFFFDC
:1064D000FFFFFFFFFFFFFFFFFFFFFFFFFFFFFFFFCC
:1064E000FFFFFFFFFFFFFFFFFFFFFFFFFFFFFFFFBC
:1064F000FFFFFFFFFFFFFFFFFFFFFFFFFFFFFFFFAC
:10650000FFFFFFFFFFFFFFFFFFFFFFFFFFFFFFFF9B
:10651000FFFFFFFFFFFFFFFFFFFFFFFFFFFFFFFF8B
:10652000FFFFFFFFFFFFFFFFFFFFFFFFFFFFFFFF7B
:10653000FFFFFFFFFFFFFFFFFFFFFFFFFFFFFFFF6B
:10654000FFFFFFFFFFFFFFFFFFFFFFFFFFFFFFFF5B
:10655000FFFFFFFFFFFFFFFFFFFFFFFFFFFFFFFF4B
:10656000FFFFFFFFFFFFFFFFFFFFFFFFFFFFFFFF3B
:10657000FFFFFFFFFFFFFFFFFFFFFFFFFFFFFFFF2B
:10658000FFFFFFFFFFFFFFFFFFFFFFFFFFFFFFFF1B
:10659000FFFFFFFFFFFFFFFFFFFFFFFFFFFF0066A3
:1065A000006700670067FFFFFFFFFFFFFFFFFFFFC0
:1065B000FFFFFFFFFFFFFFFFFFFFFFFFFFFFFFFFEB
:1065C000FFFFFFFFFFFFFFFFFFFFFFFFFFFFFFFFDB
:1065D000FFFFFFFFFFFFFFFFFFFFFFFFFFFFFFFFCB
:1065E000FFFFFFFFFFFFFFFFFFFFFFFFFFFFFFFFBB
:1065F000FFFFFFFFFFFFFFFFFFFFFFFFFFFFFFFFAB
:10660000FFFFFFFFFFFFFFFFFFFFFFFFFFFFFFFF9A
:10661000FFFFFFFFFFFFFFFFFFFFFFFFFFFFFFFF8A
:10662000FFFFFFFFFFFFFFFFFFFFFFFFFFFFFFFF7A
:10663000FFFFFFFFFFFFFFFFFFFFFFFFFFFFFFFF6A
:10664000FFFFFFFFFFFFFFFFFFFFFFFFFFFFFFFF5A
:10665000FFFFFFFFFFFFFFFFFFFFFFFFFFFFFFFF4A
:10666000FFFFFFFFFFFFFFFFFFFFFFFFFFFFFFFF3A
:10667000FFFFFFFF0065006700670067FFFFFFFF88
:10668000FFFFFFFFFFFFFFFFFFFFFFFFFFFFFFFF1A
:10669000FFFFFFFFFFFFFFFFFFFFFFFFFFFFFFFF0A
:1066A000FFFFFFFFFFFFFFFFFFFFFFFFFFFFFFFFFA
:1066B000FFFFFFFFFFFFFFFFFFFFFFFFFFFFFFFFEA
:1066C000FFFFFFFFFFFFFFFFFFFFFFFFFFFFFFFFDA
:1066D000FFFFFFFFFFFFFFFFFFFFFFFFFFFFFFFFCA
:1066E000FFFFFFFFFFFFFFFFFFFFFFFFFFFFFFFFBA
:1066F000FFFFFFFFFFFFFFFFFFFFFFFFFFFFFFFFAA
:10670000FFFFFFFFFFFFFFFFFFFFFFFFFFFFFFFF99
:10671000FFFFFFFFFFFFFFFFFFFFFFFFFFFFFFFF89
:10672000FFFFFFFFFFFFFFFFFFFFFFFFFFFFFFFF79
:10673000FFFFFFFFFFFFFFFFFFFFFFFFFFFFFFFF69
:10674000FFFFFFFFFFFFFFFFFFFFFFFFFFFFFFFF59
:10675000FFFFFFFFFFFFFFFFFFFFFFFFFFFFFFFF49
:10676000FFFFFFFFFFFFFFFFFFFFFFFFFFFFFFFF39
:10677000FFFFFFFFFFFFFFFFFFFFFFFFFFFF088699
:10678000006700670067FFFFFFFFFFFFFFFFFFFFDE
:10679000FFFFFFFFFFFFFFFFFFFFFFFFFFFFFFFF09
:1067A000FFFFFFFFFFFFFFFFFFFFFFFFFFFFFFFFF9
:1067B000FFFFFFFFFFFFFFFFFFFFFFFFFFFFFFFFE9
:1067C000FFFFFFFFFFFFFFFFFFFFFFFFFFFFFFFFD9
:1067D000FFFFFFFFFFFFFFFFFFFFFFFFFFFFFFFFC9
:1067E000FFFFFFFFFFFFFFFFFFFFFFFFFFFFFFFFB9
:1067F000FFFFFFFFFFFFFFFFFFFFFFFFFFFFFFFFA9
:10680000FFFFFFFFFFFFFFFFFFFFFFFFFFFFFFFF98
:10681000FFFFFFFFFFFFFFFFFFFFFFFFFFFFFFFF88
:10682000FFFFFFFFFFFFFFFFFFFFFFFFFFFFFFFF78
:10683000FFFFFFFFFFFFFFFFFFFFFFFFFFFFFFFF68
:10684000FFFFFFFFFFFFFFFFFFFFFFFFFFFFFFFF58
:10685000FFFFFFFF0065006700670067FFFFFFFFA6
:10686000FFFFFFFFFFFFFFFFFFFFFFFFFFFFFFFF38
:10687000FFFFFFFFFFFFFFFFFFFFFFFFFFFFFFFF28
:10688000FFFFFFFFFFFFFFFFFFFFFFFFFFFFFFFF18
:10689000FFFFFFFFFFFFFFFFFFFFFFFFFFFFFFFF08
:1068A000FFFFFFFFFFFFFFFFFFFFFFFFFFFFFFFFF8
:1068B000FFFFFFFFFFFFFFFFFFFFFFFFFFFFFFFFE8
:1068C000FFFFFFFFFFFFFFFFFFFFFFFFFFFFFFFFD8
:1068D000FFFFFFFFFFFFFFFFFFFFFFFFFFFFFFFFC8
:1068E000FFFFFFFFFFFFFFFFFFFFFFFFFFFFFFFFB8
:1068F000FFFFFFFFFFFFFFFFFFFFFFFFFFFFFFFFA8
:10690000FFFFFFFFFFFFFFFFFFFFFFFFFFFFFFFF97
:10691000FFFFFFFFFFFFFFFFFFFFFFFFFFFFFFFF87
:10692000FFFFFFFFFFFFFFFFFFFFFFFFFFFFFFFF77
:10693000FFFFFFFFFFFFFFFFFFFFFFFFFFFFFFFF67
:10694000FFFFFFFFFFFF006500670067006700674C
:1069500000670067006700670067006700670067FF
:1069600000670067006700670067006700670067EF
:1069700000670067006700670067006700670067DF
:1069800000670067006700670067006700670067CF
:1069900000670067006700670067006700670067BF
:1069A00000670067006700670067006700670067AF
:1069B000006700670067006700670067006700679F
:1069C000006700670067006700670067006700678F
:1069D000006700670067006700670067006700677F
:1069E000006700670067006700670067006700676F
:1069F000006700670067006700670067006700675F
:106A0000006700670067006700670067006700674E
:106A1000006700670067006700670067006700673E
:106A200000670067FFFFFFFFFFFFFFFFFFFFFFFFA4
:106A3000FFFFFFFF0065006700670067FFFFFFFFC4
:106A4000FFFFFFFFFFFFFFFFFFFFFFFFFFFFFFFF56
:106A5000FFFFFFFFFFFFFFFFFFFFFFFFFFFFFFFF46
:106A6000FFFFFFFFFFFFFFFFFFFFFFFFFFFFFFFF36
:106A7000FFFFFFFFFFFFFFFFFFFFFFFFFFFFFFFF26
:106A8000FFFFFFFFFFFFFFFFFFFFFFFFFFFFFFFF16
:106A9000FFFFFFFFFFFFFFFFFFFFFFFFFFFFFFFF06
:106AA000FFFFFFFFFFFFFFFFFFFFFFFFFFFFFFFFF6
:106AB000FFFFFFFFFFFFFFFFFFFFFFFFFFFFFFFFE6
:106AC000FFFFFFFFFFFFFFFFFFFFFFFFFFFFFFFFD6
:106AD000FFFFFFFFFFFFFFFFFFFFFFFFFFFFFFFFC6
:106AE000FFFFFFFFFFFFFFFFFFFFFFFFFFFFFFFFB6
:106AF000FFFFFFFFFFFFFFFFFFFFFFFFFFFFFFFFA6
:106B0000FFFFFFFFFFFFFFFFFFFFFFFFFFFFFFFF95
:106B1000FFFFFFFFFFFFFFFFFFFFFFFFFFFFFFFF85
:106B2000FFFFFFFFFFFF006500670067006700676A
:106B3000006700670067006700670067006700671D
:106B4000006700670067006700670067006700670D
:106B500000670067006700670067006700670067FD
:106B600000670067006700670067006700670067ED
:106B700000670067006700670067006700670067DD
:106B800000670067006700670067006700670067CD
:106B900000670067006700670067006700670067BD
:106BA00000670067006700670067006700670067AD
:106BB000006700670067006700670067006700679D
:106BC000006700670067006700670067006700678D
:106BD000006700670067006700670067006700677D
:106BE000006700670067006700670067006700676D
:106BF000006700670067006700670067006700675D
:106C000000670067FFFFFFFFFFFFFFFFFFFFFFFFC2
:106C1000FFFFFFFF0065006700670067FFFFFFFFE2
:106C2000FFFFFFFFFFFFFFFFFFFFFFFFFFFFFFFF74
:106C3000FFFFFFFFFFFFFFFFFFFFFFFFFFFFFFFF64
:106C4000FFFFFFFFFFFFFFFFFFFFFFFFFFFFFFFF54
:106C5000FFFFFFFFFFFFFFFFFFFFFFFFFFFFFFFF44
:106C6000FFFFFFFFFFFFFFFFFFFFFFFFFFFFFFFF34
:106C7000FFFFFFFFFFFFFFFFFFFFFFFFFFFFFFFF24
:106C8000FFFFFFFFFFFFFFFFFFFFFFFFFFFFFFFF14
:106C9000FFFFFFFFFFFFFFFFFFFFFFFFFFFFFFFF04
:106CA000FFFFFFFFFFFFFFFFFFFFFFFFFFFFFFFFF4
:106CB000FFFFFFFFFFFFFFFFFFFFFFFFFFFFFFFFE4
:106CC000FFFFFFFFFFFFFFFFFFFFFFFFFFFFFFFFD4
:106CD000FFFFFFFFFFFFFFFFFFFFFFFFFFFFFFFFC4
:106CE000FFFFFFFFFFFFFFFFFFFFFFFFFFFFFFFFB4
:106CF000FFFFFFFFFFFFFFFFFFFFFFFFFFFFFFFFA4
:106D0000FFFFFFFFFFFF0065006700670067006788
:106D1000006700670067006700670067006700673B
:106D2000006700670067006700670067006700672B
:106D3000006700670067006700670067006700671B
:106D4000006700670067006700670067006700670B
:106D500000670067006700670067006700670067FB
:106D600000670067006700670067006700670067EB
:106D700000670067006700670067006700670067DB
:106D800000670067006700670067006700670067CB
:106D900000670067006700670067006700670067BB
:106DA00000670067006700670067006700670067AB
:106DB000006700670067006700670067006700679B
:106DC000006700670067006700670067006700678B
:106DD000006700670067006700670067006700677B
:106DE00000670067FFFFFFFFFFFFFFFFFFFFFFFFE1
:106DF000FFFFFFFF0065006700670067FFFFFFFF01
:106E0000FFFFFFFFFFFFFFFFFFFFFFFFFFFFFFFF92
:106E1000FFFFFFFFFFFFFFFFFFFFFFFFFFFFFFFF82
:106E2000FFFFFFFFFFFFFFFFFFFFFFFFFFFFFFFF72
:106E3000FFFFFFFFFFFFFFFFFFFFFFFFFFFFFFFF62
:106E4000FFFFFFFFFFFFFFFFFFFFFFFFFFFFFFFF52
:106E5000FFFFFFFFFFFFFFFFFFFFFFFFFFFFFFFF42
:106E6000FFFFFFFFFFFFFFFFFFFFFFFFFFFFFFFF32
:106E7000FFFFFFFFFFFFFFFFFFFFFFFFFFFFFFFF22
:106E8000FFFFFFFFFFFFFFFFFFFFFFFFFFFFFFFF12
:106E9000FFFFFFFFFFFFFFFFFFFFFFFFFFFFFFFF02
:106EA000FFFFFFFFFFFFFFFFFFFFFFFFFFFFFFFFF2
:106EB000FFFFFFFFFFFFFFFFFFFFFFFFFFFFFFFFE2
:106EC000FFFFFFFFFFFFFFFFFFFFFFFFFFFFFFFFD2
:106ED000FFFFFFFFFFFFFFFFFFFFFFFFFFFFFFFFC2
:106EE000FFFFFFFFFFFF0065006700670067FFFF10
:106EF000FFFFFFFFFFFFFFFFFFFFFFFFFFFFFFFFA2
:106F0000FFFFFFFFFFFFFFFFFFFFFFFFFFFFFFFF91
:106F1000FFFFFFFFFFFFFFFFFFFFFFFFFFFFFFFF81
:106F2000FFFFFFFFFFFFFFFFFFFFFFFFFFFFFFFF71
:106F3000FFFFFFFFFFFFFFFFFFFFFFFFFFFFFFFF61
:106F4000FFFFFFFFFFFFFFFFFFFFFFFFFFFFFFFF51
:106F5000FFFFFFFFFFFFFFFFFFFFFFFFFFFFFFFF41
:106F6000FFFFFFFFFFFFFFFFFFFFFFFFFFFFFFFF31
:106F7000FFFFFFFFFFFFFFFFFFFFFFFFFFFFFFFF21
:106F8000FFFFFFFFFFFFFFFFFFFFFFFFFFFFFFFF11
:106F9000FFFFFFFFFFFFFFFFFFFFFFFFFFFFFFFF01
:106FA000FFFFFFFFFFFFFFFFFFFFFFFFFFFFFFFFF1
:106FB000FFFFFFFFFFFFFFFFFFFFFFFF6BB2006759
:106FC00000670067FFFFFFFFFFFFFFFFFFFFFFFFFF
:106FD000FFFFFFFF0065006700670067FFFFFFFF1F
:106FE000FFFFFFFFFFFFFFFFFFFFFFFFFFFFFFFFB1
:106FF000FFFFFFFFFFFFFFFFFFFFFFFFFFFFFFFFA1
:10700000FFFFFFFFFFFFFFFFFFFFFFFFFFFFFFFF90
